{
  "_format": "hh-sol-artifact-1",
  "contractName": "AssetFaucet",
  "sourceName": "contracts/assetFaucet.sol",
  "abi": [
    {
      "inputs": [],
      "stateMutability": "nonpayable",
      "type": "constructor"
    },
    {
      "anonymous": false,
      "inputs": [
        {
          "indexed": true,
          "internalType": "address",
          "name": "owner",
          "type": "address"
        },
        {
          "indexed": true,
          "internalType": "address",
          "name": "approved",
          "type": "address"
        },
        {
          "indexed": true,
          "internalType": "uint256",
          "name": "tokenId",
          "type": "uint256"
        }
      ],
      "name": "Approval",
      "type": "event"
    },
    {
      "anonymous": false,
      "inputs": [
        {
          "indexed": true,
          "internalType": "address",
          "name": "owner",
          "type": "address"
        },
        {
          "indexed": true,
          "internalType": "address",
          "name": "operator",
          "type": "address"
        },
        {
          "indexed": false,
          "internalType": "bool",
          "name": "approved",
          "type": "bool"
        }
      ],
      "name": "ApprovalForAll",
      "type": "event"
    },
    {
      "anonymous": false,
      "inputs": [
        {
          "indexed": true,
          "internalType": "address",
          "name": "from",
          "type": "address"
        },
        {
          "indexed": true,
          "internalType": "address",
          "name": "to",
          "type": "address"
        },
        {
          "indexed": true,
          "internalType": "uint256",
          "name": "tokenId",
          "type": "uint256"
        }
      ],
      "name": "Transfer",
      "type": "event"
    },
    {
      "inputs": [
        {
          "internalType": "address",
          "name": "to",
          "type": "address"
        },
        {
          "internalType": "uint256",
          "name": "tokenId",
          "type": "uint256"
        }
      ],
      "name": "approve",
      "outputs": [],
      "stateMutability": "nonpayable",
      "type": "function"
    },
    {
      "inputs": [
        {
          "internalType": "address",
          "name": "owner",
          "type": "address"
        }
      ],
      "name": "balanceOf",
      "outputs": [
        {
          "internalType": "uint256",
          "name": "",
          "type": "uint256"
        }
      ],
      "stateMutability": "view",
      "type": "function"
    },
    {
      "inputs": [
        {
          "internalType": "uint256",
          "name": "tokenId",
          "type": "uint256"
        }
      ],
      "name": "getApproved",
      "outputs": [
        {
          "internalType": "address",
          "name": "",
          "type": "address"
        }
      ],
      "stateMutability": "view",
      "type": "function"
    },
    {
      "inputs": [],
      "name": "giveMe",
      "outputs": [
        {
          "internalType": "uint256",
          "name": "",
          "type": "uint256"
        }
      ],
      "stateMutability": "nonpayable",
      "type": "function"
    },
    {
      "inputs": [
        {
          "internalType": "address",
          "name": "owner",
          "type": "address"
        },
        {
          "internalType": "address",
          "name": "operator",
          "type": "address"
        }
      ],
      "name": "isApprovedForAll",
      "outputs": [
        {
          "internalType": "bool",
          "name": "",
          "type": "bool"
        }
      ],
      "stateMutability": "view",
      "type": "function"
    },
    {
      "inputs": [],
      "name": "name",
      "outputs": [
        {
          "internalType": "string",
          "name": "",
          "type": "string"
        }
      ],
      "stateMutability": "view",
      "type": "function"
    },
    {
      "inputs": [
        {
          "internalType": "uint256",
          "name": "tokenId",
          "type": "uint256"
        }
      ],
      "name": "ownerOf",
      "outputs": [
        {
          "internalType": "address",
          "name": "",
          "type": "address"
        }
      ],
      "stateMutability": "view",
      "type": "function"
    },
    {
      "inputs": [
        {
          "internalType": "address",
          "name": "from",
          "type": "address"
        },
        {
          "internalType": "address",
          "name": "to",
          "type": "address"
        },
        {
          "internalType": "uint256",
          "name": "tokenId",
          "type": "uint256"
        }
      ],
      "name": "safeTransferFrom",
      "outputs": [],
      "stateMutability": "nonpayable",
      "type": "function"
    },
    {
      "inputs": [
        {
          "internalType": "address",
          "name": "from",
          "type": "address"
        },
        {
          "internalType": "address",
          "name": "to",
          "type": "address"
        },
        {
          "internalType": "uint256",
          "name": "tokenId",
          "type": "uint256"
        },
        {
          "internalType": "bytes",
          "name": "_data",
          "type": "bytes"
        }
      ],
      "name": "safeTransferFrom",
      "outputs": [],
      "stateMutability": "nonpayable",
      "type": "function"
    },
    {
      "inputs": [
        {
          "internalType": "address",
          "name": "operator",
          "type": "address"
        },
        {
          "internalType": "bool",
          "name": "approved",
          "type": "bool"
        }
      ],
      "name": "setApprovalForAll",
      "outputs": [],
      "stateMutability": "nonpayable",
      "type": "function"
    },
    {
      "inputs": [
        {
          "internalType": "bytes4",
          "name": "interfaceId",
          "type": "bytes4"
        }
      ],
      "name": "supportsInterface",
      "outputs": [
        {
          "internalType": "bool",
          "name": "",
          "type": "bool"
        }
      ],
      "stateMutability": "view",
      "type": "function"
    },
    {
      "inputs": [],
      "name": "symbol",
      "outputs": [
        {
          "internalType": "string",
          "name": "",
          "type": "string"
        }
      ],
      "stateMutability": "view",
      "type": "function"
    },
    {
      "inputs": [
        {
          "internalType": "uint256",
          "name": "tokenId",
          "type": "uint256"
        }
      ],
      "name": "tokenURI",
      "outputs": [
        {
          "internalType": "string",
          "name": "",
          "type": "string"
        }
      ],
      "stateMutability": "view",
      "type": "function"
    },
    {
      "inputs": [
        {
          "internalType": "address",
          "name": "from",
          "type": "address"
        },
        {
          "internalType": "address",
          "name": "to",
          "type": "address"
        },
        {
          "internalType": "uint256",
          "name": "tokenId",
          "type": "uint256"
        }
      ],
      "name": "transferFrom",
      "outputs": [],
      "stateMutability": "nonpayable",
      "type": "function"
    }
  ],
  "bytecode": "0x60806040523480156200001157600080fd5b506040518060400160405280600c81526020017f434c5242582046617563657400000000000000000000000000000000000000008152506040518060400160405280600781526020017f434c5242582d6600000000000000000000000000000000000000000000000000815250816000908051906020019062000096929190620001cf565b508060019080519060200190620000af929190620001cf565b505050620000fd6040518060400160405280600d81526020017f636c7262782063726561746564000000000000000000000000000000000000008152506200010360201b62000a601760201c565b620003ac565b620001a3816040516024016200011a9190620002c0565b6040516020818303038152906040527f41304fac000000000000000000000000000000000000000000000000000000007bffffffffffffffffffffffffffffffffffffffffffffffffffffffff19166020820180517bffffffffffffffffffffffffffffffffffffffffffffffffffffffff8381831617835250505050620001a660201b60201c565b50565b60008151905060006a636f6e736f6c652e6c6f679050602083016000808483855afa5050505050565b828054620001dd9062000336565b90600052602060002090601f0160209004810192826200020157600085556200024d565b82601f106200021c57805160ff19168380011785556200024d565b828001600101855582156200024d579182015b828111156200024c5782518255916020019190600101906200022f565b5b5090506200025c919062000260565b5090565b5b808211156200027b57600081600090555060010162000261565b5090565b60006200028c82620002e4565b620002988185620002ef565b9350620002aa81856020860162000300565b620002b5816200039b565b840191505092915050565b60006020820190508181036000830152620002dc81846200027f565b905092915050565b600081519050919050565b600082825260208201905092915050565b60005b838110156200032057808201518184015260208101905062000303565b8381111562000330576000848401525b50505050565b600060028204905060018216806200034f57607f821691505b602082108114156200036657620003656200036c565b5b50919050565b7f4e487b7100000000000000000000000000000000000000000000000000000000600052602260045260246000fd5b6000601f19601f8301169050919050565b61279780620003bc6000396000f3fe608060405234801561001057600080fd5b50600436106100ea5760003560e01c80636352211e1161008c578063a22cb46511610066578063a22cb4651461025d578063b88d4fde14610279578063c87b56dd14610295578063e985e9c5146102c5576100ea565b80636352211e146101df57806370a082311461020f57806395d89b411461023f576100ea565b8063095ea7b3116100c8578063095ea7b31461016d57806323b872dd1461018957806342842e0e146101a55780634921a91a146101c1576100ea565b806301ffc9a7146100ef57806306fdde031461011f578063081812fc1461013d575b600080fd5b61010960048036038101906101049190611999565b6102f5565b6040516101169190611d59565b60405180910390f35b6101276103d7565b6040516101349190611d74565b60405180910390f35b610157600480360381019061015291906119eb565b610469565b6040516101649190611cf2565b60405180910390f35b6101876004803603810190610182919061195d565b6104ee565b005b6101a3600480360381019061019e9190611857565b610606565b005b6101bf60048036038101906101ba9190611857565b610666565b005b6101c9610686565b6040516101d69190611f56565b60405180910390f35b6101f960048036038101906101f491906119eb565b6106b1565b6040516102069190611cf2565b60405180910390f35b610229600480360381019061022491906117f2565b610763565b6040516102369190611f56565b60405180910390f35b61024761081b565b6040516102549190611d74565b60405180910390f35b61027760048036038101906102729190611921565b6108ad565b005b610293600480360381019061028e91906118a6565b6108c3565b005b6102af60048036038101906102aa91906119eb565b610925565b6040516102bc9190611d74565b60405180910390f35b6102df60048036038101906102da919061181b565b6109cc565b6040516102ec9190611d59565b60405180910390f35b60007f80ac58cd000000000000000000000000000000000000000000000000000000007bffffffffffffffffffffffffffffffffffffffffffffffffffffffff1916827bffffffffffffffffffffffffffffffffffffffffffffffffffffffff191614806103c057507f5b5e139f000000000000000000000000000000000000000000000000000000007bffffffffffffffffffffffffffffffffffffffffffffffffffffffff1916827bffffffffffffffffffffffffffffffffffffffffffffffffffffffff1916145b806103d057506103cf82610af9565b5b9050919050565b6060600080546103e69061217b565b80601f01602080910402602001604051908101604052809291908181526020018280546104129061217b565b801561045f5780601f106104345761010080835404028352916020019161045f565b820191906000526020600020905b81548152906001019060200180831161044257829003601f168201915b5050505050905090565b600061047482610b63565b6104b3576040517f08c379a00000000000000000000000000000000000000000000000000000000081526004016104aa90611eb6565b60405180910390fd5b6004600083815260200190815260200160002060009054906101000a900473ffffffffffffffffffffffffffffffffffffffff169050919050565b60006104f9826106b1565b90508073ffffffffffffffffffffffffffffffffffffffff168373ffffffffffffffffffffffffffffffffffffffff16141561056a576040517f08c379a000000000000000000000000000000000000000000000000000000000815260040161056190611f16565b60405180910390fd5b8073ffffffffffffffffffffffffffffffffffffffff16610589610bcf565b73ffffffffffffffffffffffffffffffffffffffff1614806105b857506105b7816105b2610bcf565b6109cc565b5b6105f7576040517f08c379a00000000000000000000000000000000000000000000000000000000081526004016105ee90611e36565b60405180910390fd5b6106018383610bd7565b505050565b610617610611610bcf565b82610c90565b610656576040517f08c379a000000000000000000000000000000000000000000000000000000000815260040161064d90611f36565b60405180910390fd5b610661838383610d6e565b505050565b610681838383604051806020016040528060008152506108c3565b505050565b60006106926006610fca565b600061069e6006610fe0565b90506106aa3382610fee565b8091505090565b6000806002600084815260200190815260200160002060009054906101000a900473ffffffffffffffffffffffffffffffffffffffff169050600073ffffffffffffffffffffffffffffffffffffffff168173ffffffffffffffffffffffffffffffffffffffff16141561075a576040517f08c379a000000000000000000000000000000000000000000000000000000000815260040161075190611e76565b60405180910390fd5b80915050919050565b60008073ffffffffffffffffffffffffffffffffffffffff168273ffffffffffffffffffffffffffffffffffffffff1614156107d4576040517f08c379a00000000000000000000000000000000000000000000000000000000081526004016107cb90611e56565b60405180910390fd5b600360008373ffffffffffffffffffffffffffffffffffffffff1673ffffffffffffffffffffffffffffffffffffffff168152602001908152602001600020549050919050565b60606001805461082a9061217b565b80601f01602080910402602001604051908101604052809291908181526020018280546108569061217b565b80156108a35780601f10610878576101008083540402835291602001916108a3565b820191906000526020600020905b81548152906001019060200180831161088657829003601f168201915b5050505050905090565b6108bf6108b8610bcf565b83836111bc565b5050565b6108d46108ce610bcf565b83610c90565b610913576040517f08c379a000000000000000000000000000000000000000000000000000000000815260040161090a90611f36565b60405180910390fd5b61091f84848484611329565b50505050565b606061093082610b63565b61096f576040517f08c379a000000000000000000000000000000000000000000000000000000000815260040161096690611ef6565b60405180910390fd5b6000610979611385565b9050600081511161099957604051806020016040528060008152506109c4565b806109a38461139c565b6040516020016109b4929190611cce565b6040516020818303038152906040525b915050919050565b6000600560008473ffffffffffffffffffffffffffffffffffffffff1673ffffffffffffffffffffffffffffffffffffffff16815260200190815260200160002060008373ffffffffffffffffffffffffffffffffffffffff1673ffffffffffffffffffffffffffffffffffffffff16815260200190815260200160002060009054906101000a900460ff16905092915050565b610af681604051602401610a749190611d74565b6040516020818303038152906040527f41304fac000000000000000000000000000000000000000000000000000000007bffffffffffffffffffffffffffffffffffffffffffffffffffffffff19166020820180517bffffffffffffffffffffffffffffffffffffffffffffffffffffffff8381831617835250505050611549565b50565b60007f01ffc9a7000000000000000000000000000000000000000000000000000000007bffffffffffffffffffffffffffffffffffffffffffffffffffffffff1916827bffffffffffffffffffffffffffffffffffffffffffffffffffffffff1916149050919050565b60008073ffffffffffffffffffffffffffffffffffffffff166002600084815260200190815260200160002060009054906101000a900473ffffffffffffffffffffffffffffffffffffffff1673ffffffffffffffffffffffffffffffffffffffff1614159050919050565b600033905090565b816004600083815260200190815260200160002060006101000a81548173ffffffffffffffffffffffffffffffffffffffff021916908373ffffffffffffffffffffffffffffffffffffffff160217905550808273ffffffffffffffffffffffffffffffffffffffff16610c4a836106b1565b73ffffffffffffffffffffffffffffffffffffffff167f8c5be1e5ebec7d5bd14f71427d1e84f3dd0314c0f7b2291e5b200ac8c7c3b92560405160405180910390a45050565b6000610c9b82610b63565b610cda576040517f08c379a0000000000000000000000000000000000000000000000000000000008152600401610cd190611e16565b60405180910390fd5b6000610ce5836106b1565b90508073ffffffffffffffffffffffffffffffffffffffff168473ffffffffffffffffffffffffffffffffffffffff161480610d5457508373ffffffffffffffffffffffffffffffffffffffff16610d3c84610469565b73ffffffffffffffffffffffffffffffffffffffff16145b80610d655750610d6481856109cc565b5b91505092915050565b8273ffffffffffffffffffffffffffffffffffffffff16610d8e826106b1565b73ffffffffffffffffffffffffffffffffffffffff1614610de4576040517f08c379a0000000000000000000000000000000000000000000000000000000008152600401610ddb90611ed6565b60405180910390fd5b600073ffffffffffffffffffffffffffffffffffffffff168273ffffffffffffffffffffffffffffffffffffffff161415610e54576040517f08c379a0000000000000000000000000000000000000000000000000000000008152600401610e4b90611dd6565b60405180910390fd5b610e5f838383611572565b610e6a600082610bd7565b6001600360008573ffffffffffffffffffffffffffffffffffffffff1673ffffffffffffffffffffffffffffffffffffffff1681526020019081526020016000206000828254610eba9190612091565b925050819055506001600360008473ffffffffffffffffffffffffffffffffffffffff1673ffffffffffffffffffffffffffffffffffffffff1681526020019081526020016000206000828254610f11919061200a565b92505081905550816002600083815260200190815260200160002060006101000a81548173ffffffffffffffffffffffffffffffffffffffff021916908373ffffffffffffffffffffffffffffffffffffffff160217905550808273ffffffffffffffffffffffffffffffffffffffff168473ffffffffffffffffffffffffffffffffffffffff167fddf252ad1be2c89b69c2b068fc378daa952ba7f163c4a11628f55a4df523b3ef60405160405180910390a4505050565b6001816000016000828254019250508190555050565b600081600001549050919050565b600073ffffffffffffffffffffffffffffffffffffffff168273ffffffffffffffffffffffffffffffffffffffff16141561105e576040517f08c379a000000000000000000000000000000000000000000000000000000000815260040161105590611e96565b60405180910390fd5b61106781610b63565b156110a7576040517f08c379a000000000000000000000000000000000000000000000000000000000815260040161109e90611db6565b60405180910390fd5b6110b360008383611572565b6001600360008473ffffffffffffffffffffffffffffffffffffffff1673ffffffffffffffffffffffffffffffffffffffff1681526020019081526020016000206000828254611103919061200a565b92505081905550816002600083815260200190815260200160002060006101000a81548173ffffffffffffffffffffffffffffffffffffffff021916908373ffffffffffffffffffffffffffffffffffffffff160217905550808273ffffffffffffffffffffffffffffffffffffffff16600073ffffffffffffffffffffffffffffffffffffffff167fddf252ad1be2c89b69c2b068fc378daa952ba7f163c4a11628f55a4df523b3ef60405160405180910390a45050565b8173ffffffffffffffffffffffffffffffffffffffff168373ffffffffffffffffffffffffffffffffffffffff16141561122b576040517f08c379a000000000000000000000000000000000000000000000000000000000815260040161122290611df6565b60405180910390fd5b80600560008573ffffffffffffffffffffffffffffffffffffffff1673ffffffffffffffffffffffffffffffffffffffff16815260200190815260200160002060008473ffffffffffffffffffffffffffffffffffffffff1673ffffffffffffffffffffffffffffffffffffffff16815260200190815260200160002060006101000a81548160ff0219169083151502179055508173ffffffffffffffffffffffffffffffffffffffff168373ffffffffffffffffffffffffffffffffffffffff167f17307eab39ab6107e8899845ad3d59bd9653f200f220920489ca2b5937696c318360405161131c9190611d59565b60405180910390a3505050565b611334848484610d6e565b61134084848484611577565b61137f576040517f08c379a000000000000000000000000000000000000000000000000000000000815260040161137690611d96565b60405180910390fd5b50505050565b606060405180602001604052806000815250905090565b606060008214156113e4576040518060400160405280600181526020017f30000000000000000000000000000000000000000000000000000000000000008152509050611544565b600082905060005b600082146114165780806113ff906121de565b915050600a8261140f9190612060565b91506113ec565b60008167ffffffffffffffff811115611458577f4e487b7100000000000000000000000000000000000000000000000000000000600052604160045260246000fd5b6040519080825280601f01601f19166020018201604052801561148a5781602001600182028036833780820191505090505b5090505b6000851461153d576001826114a39190612091565b9150600a856114b29190612227565b60306114be919061200a565b60f81b8183815181106114fa577f4e487b7100000000000000000000000000000000000000000000000000000000600052603260045260246000fd5b60200101907effffffffffffffffffffffffffffffffffffffffffffffffffffffffffffff1916908160001a905350600a856115369190612060565b945061148e565b8093505050505b919050565b60008151905060006a636f6e736f6c652e6c6f679050602083016000808483855afa5050505050565b505050565b60006115988473ffffffffffffffffffffffffffffffffffffffff1661170e565b15611701578373ffffffffffffffffffffffffffffffffffffffff1663150b7a026115c1610bcf565b8786866040518563ffffffff1660e01b81526004016115e39493929190611d0d565b602060405180830381600087803b1580156115fd57600080fd5b505af192505050801561162e57506040513d601f19601f8201168201806040525081019061162b91906119c2565b60015b6116b1573d806000811461165e576040519150601f19603f3d011682016040523d82523d6000602084013e611663565b606091505b506000815114156116a9576040517f08c379a00000000000000000000000000000000000000000000000000000000081526004016116a090611d96565b60405180910390fd5b805181602001fd5b63150b7a0260e01b7bffffffffffffffffffffffffffffffffffffffffffffffffffffffff1916817bffffffffffffffffffffffffffffffffffffffffffffffffffffffff191614915050611706565b600190505b949350505050565b600080823b905060008111915050919050565b600061173461172f84611f96565b611f71565b90508281526020810184848401111561174c57600080fd5b611757848285612139565b509392505050565b60008135905061176e81612705565b92915050565b6000813590506117838161271c565b92915050565b60008135905061179881612733565b92915050565b6000815190506117ad81612733565b92915050565b600082601f8301126117c457600080fd5b81356117d4848260208601611721565b91505092915050565b6000813590506117ec8161274a565b92915050565b60006020828403121561180457600080fd5b60006118128482850161175f565b91505092915050565b6000806040838503121561182e57600080fd5b600061183c8582860161175f565b925050602061184d8582860161175f565b9150509250929050565b60008060006060848603121561186c57600080fd5b600061187a8682870161175f565b935050602061188b8682870161175f565b925050604061189c868287016117dd565b9150509250925092565b600080600080608085870312156118bc57600080fd5b60006118ca8782880161175f565b94505060206118db8782880161175f565b93505060406118ec878288016117dd565b925050606085013567ffffffffffffffff81111561190957600080fd5b611915878288016117b3565b91505092959194509250565b6000806040838503121561193457600080fd5b60006119428582860161175f565b925050602061195385828601611774565b9150509250929050565b6000806040838503121561197057600080fd5b600061197e8582860161175f565b925050602061198f858286016117dd565b9150509250929050565b6000602082840312156119ab57600080fd5b60006119b984828501611789565b91505092915050565b6000602082840312156119d457600080fd5b60006119e28482850161179e565b91505092915050565b6000602082840312156119fd57600080fd5b6000611a0b848285016117dd565b91505092915050565b611a1d816120c5565b82525050565b611a2c816120d7565b82525050565b6000611a3d82611fc7565b611a478185611fdd565b9350611a57818560208601612148565b611a6081612314565b840191505092915050565b6000611a7682611fd2565b611a808185611fee565b9350611a90818560208601612148565b611a9981612314565b840191505092915050565b6000611aaf82611fd2565b611ab98185611fff565b9350611ac9818560208601612148565b80840191505092915050565b6000611ae2603283611fee565b9150611aed82612325565b604082019050919050565b6000611b05601c83611fee565b9150611b1082612374565b602082019050919050565b6000611b28602483611fee565b9150611b338261239d565b604082019050919050565b6000611b4b601983611fee565b9150611b56826123ec565b602082019050919050565b6000611b6e602c83611fee565b9150611b7982612415565b604082019050919050565b6000611b91603883611fee565b9150611b9c82612464565b604082019050919050565b6000611bb4602a83611fee565b9150611bbf826124b3565b604082019050919050565b6000611bd7602983611fee565b9150611be282612502565b604082019050919050565b6000611bfa602083611fee565b9150611c0582612551565b602082019050919050565b6000611c1d602c83611fee565b9150611c288261257a565b604082019050919050565b6000611c40602983611fee565b9150611c4b826125c9565b604082019050919050565b6000611c63602f83611fee565b9150611c6e82612618565b604082019050919050565b6000611c86602183611fee565b9150611c9182612667565b604082019050919050565b6000611ca9603183611fee565b9150611cb4826126b6565b604082019050919050565b611cc88161212f565b82525050565b6000611cda8285611aa4565b9150611ce68284611aa4565b91508190509392505050565b6000602082019050611d076000830184611a14565b92915050565b6000608082019050611d226000830187611a14565b611d2f6020830186611a14565b611d3c6040830185611cbf565b8181036060830152611d4e8184611a32565b905095945050505050565b6000602082019050611d6e6000830184611a23565b92915050565b60006020820190508181036000830152611d8e8184611a6b565b905092915050565b60006020820190508181036000830152611daf81611ad5565b9050919050565b60006020820190508181036000830152611dcf81611af8565b9050919050565b60006020820190508181036000830152611def81611b1b565b9050919050565b60006020820190508181036000830152611e0f81611b3e565b9050919050565b60006020820190508181036000830152611e2f81611b61565b9050919050565b60006020820190508181036000830152611e4f81611b84565b9050919050565b60006020820190508181036000830152611e6f81611ba7565b9050919050565b60006020820190508181036000830152611e8f81611bca565b9050919050565b60006020820190508181036000830152611eaf81611bed565b9050919050565b60006020820190508181036000830152611ecf81611c10565b9050919050565b60006020820190508181036000830152611eef81611c33565b9050919050565b60006020820190508181036000830152611f0f81611c56565b9050919050565b60006020820190508181036000830152611f2f81611c79565b9050919050565b60006020820190508181036000830152611f4f81611c9c565b9050919050565b6000602082019050611f6b6000830184611cbf565b92915050565b6000611f7b611f8c565b9050611f8782826121ad565b919050565b6000604051905090565b600067ffffffffffffffff821115611fb157611fb06122e5565b5b611fba82612314565b9050602081019050919050565b600081519050919050565b600081519050919050565b600082825260208201905092915050565b600082825260208201905092915050565b600081905092915050565b60006120158261212f565b91506120208361212f565b9250827fffffffffffffffffffffffffffffffffffffffffffffffffffffffffffffffff0382111561205557612054612258565b5b828201905092915050565b600061206b8261212f565b91506120768361212f565b92508261208657612085612287565b5b828204905092915050565b600061209c8261212f565b91506120a78361212f565b9250828210156120ba576120b9612258565b5b828203905092915050565b60006120d08261210f565b9050919050565b60008115159050919050565b60007fffffffff0000000000000000000000000000000000000000000000000000000082169050919050565b600073ffffffffffffffffffffffffffffffffffffffff82169050919050565b6000819050919050565b82818337600083830152505050565b60005b8381101561216657808201518184015260208101905061214b565b83811115612175576000848401525b50505050565b6000600282049050600182168061219357607f821691505b602082108114156121a7576121a66122b6565b5b50919050565b6121b682612314565b810181811067ffffffffffffffff821117156121d5576121d46122e5565b5b80604052505050565b60006121e98261212f565b91507fffffffffffffffffffffffffffffffffffffffffffffffffffffffffffffffff82141561221c5761221b612258565b5b600182019050919050565b60006122328261212f565b915061223d8361212f565b92508261224d5761224c612287565b5b828206905092915050565b7f4e487b7100000000000000000000000000000000000000000000000000000000600052601160045260246000fd5b7f4e487b7100000000000000000000000000000000000000000000000000000000600052601260045260246000fd5b7f4e487b7100000000000000000000000000000000000000000000000000000000600052602260045260246000fd5b7f4e487b7100000000000000000000000000000000000000000000000000000000600052604160045260246000fd5b6000601f19601f8301169050919050565b7f4552433732313a207472616e7366657220746f206e6f6e20455243373231526560008201527f63656976657220696d706c656d656e7465720000000000000000000000000000602082015250565b7f4552433732313a20746f6b656e20616c7265616479206d696e74656400000000600082015250565b7f4552433732313a207472616e7366657220746f20746865207a65726f2061646460008201527f7265737300000000000000000000000000000000000000000000000000000000602082015250565b7f4552433732313a20617070726f766520746f2063616c6c657200000000000000600082015250565b7f4552433732313a206f70657261746f7220717565727920666f72206e6f6e657860008201527f697374656e7420746f6b656e0000000000000000000000000000000000000000602082015250565b7f4552433732313a20617070726f76652063616c6c6572206973206e6f74206f7760008201527f6e6572206e6f7220617070726f76656420666f7220616c6c0000000000000000602082015250565b7f4552433732313a2062616c616e636520717565727920666f7220746865207a6560008201527f726f206164647265737300000000000000000000000000000000000000000000602082015250565b7f4552433732313a206f776e657220717565727920666f72206e6f6e657869737460008201527f656e7420746f6b656e0000000000000000000000000000000000000000000000602082015250565b7f4552433732313a206d696e7420746f20746865207a65726f2061646472657373600082015250565b7f4552433732313a20617070726f76656420717565727920666f72206e6f6e657860008201527f697374656e7420746f6b656e0000000000000000000000000000000000000000602082015250565b7f4552433732313a207472616e73666572206f6620746f6b656e2074686174206960008201527f73206e6f74206f776e0000000000000000000000000000000000000000000000602082015250565b7f4552433732314d657461646174613a2055524920717565727920666f72206e6f60008201527f6e6578697374656e7420746f6b656e0000000000000000000000000000000000602082015250565b7f4552433732313a20617070726f76616c20746f2063757272656e74206f776e6560008201527f7200000000000000000000000000000000000000000000000000000000000000602082015250565b7f4552433732313a207472616e736665722063616c6c6572206973206e6f74206f60008201527f776e6572206e6f7220617070726f766564000000000000000000000000000000602082015250565b61270e816120c5565b811461271957600080fd5b50565b612725816120d7565b811461273057600080fd5b50565b61273c816120e3565b811461274757600080fd5b50565b6127538161212f565b811461275e57600080fd5b5056fea2646970667358221220c23b14fb095b64c66dbd97194027b31ec5ff4546d964e3cf5e58f2b4abf0fb0064736f6c63430008040033",
  "linkReferences": {},
  "deployedLinkReferences": {}
}