{
  "_format": "hh-sol-artifact-1",
  "contractName": "AssetSide",
  "sourceName": "contracts/assetSide.sol",
  "abi": [
    {
      "anonymous": false,
      "inputs": [
        {
          "indexed": true,
          "internalType": "address",
          "name": "alexWallet",
          "type": "address"
        },
        {
          "indexed": true,
          "internalType": "address",
          "name": "asset",
          "type": "address"
        },
        {
          "indexed": true,
          "internalType": "uint256",
          "name": "status",
          "type": "uint256"
        },
        {
          "indexed": false,
          "internalType": "bytes32",
          "name": "contractId",
          "type": "bytes32"
        }
      ],
      "name": "LoanRequest",
      "type": "event"
    },
    {
      "anonymous": false,
      "inputs": [
        {
          "indexed": true,
          "internalType": "address",
          "name": "previousOwner",
          "type": "address"
        },
        {
          "indexed": true,
          "internalType": "address",
          "name": "newOwner",
          "type": "address"
        }
      ],
      "name": "OwnershipTransferred",
      "type": "event"
    },
    {
      "inputs": [
        {
          "internalType": "bytes32",
          "name": "_contractId",
          "type": "bytes32"
        },
        {
          "internalType": "bytes32",
          "name": "_preImage1",
          "type": "bytes32"
        }
      ],
      "name": "acceptLoan",
      "outputs": [],
      "stateMutability": "nonpayable",
      "type": "function"
    },
    {
      "inputs": [
        {
          "internalType": "address",
          "name": "_asset",
          "type": "address"
        },
        {
          "internalType": "uint256",
          "name": "_tokenId",
          "type": "uint256"
        },
        {
          "internalType": "address",
          "name": "_assetOwner",
          "type": "address"
        },
        {
          "internalType": "bytes32",
          "name": "_secret1Hash",
          "type": "bytes32"
        },
        {
          "internalType": "uint256",
          "name": "_reqTill",
          "type": "uint256"
        },
        {
          "internalType": "uint256",
          "name": "_acceptTill",
          "type": "uint256"
        },
        {
          "internalType": "uint256",
          "name": "_lockedTill",
          "type": "uint256"
        },
        {
          "internalType": "uint256",
          "name": "_releaseTill",
          "type": "uint256"
        }
      ],
      "name": "askForLoan",
      "outputs": [],
      "stateMutability": "nonpayable",
      "type": "function"
    },
    {
      "inputs": [
        {
          "internalType": "bytes32",
          "name": "_contractId",
          "type": "bytes32"
        }
      ],
      "name": "getContract1",
      "outputs": [
        {
          "internalType": "bytes32",
          "name": "secret1Hash",
          "type": "bytes32"
        },
        {
          "internalType": "bytes32",
          "name": "secret2Hash",
          "type": "bytes32"
        },
        {
          "internalType": "bytes32",
          "name": "preimage1",
          "type": "bytes32"
        },
        {
          "internalType": "bytes32",
          "name": "preimage2",
          "type": "bytes32"
        },
        {
          "internalType": "address",
          "name": "assetContract",
          "type": "address"
        },
        {
          "internalType": "uint256",
          "name": "tokenId",
          "type": "uint256"
        },
        {
          "internalType": "uint256",
          "name": "loanAmount",
          "type": "uint256"
        },
        {
          "internalType": "uint256",
          "name": "loanInterest",
          "type": "uint256"
        },
        {
          "internalType": "uint256",
          "name": "lenderDeposit",
          "type": "uint256"
        },
        {
          "internalType": "address",
          "name": "bobsWalet",
          "type": "address"
        },
        {
          "internalType": "address",
          "name": "alexWallet",
          "type": "address"
        },
        {
          "internalType": "uint8",
          "name": "status",
          "type": "uint8"
        }
      ],
      "stateMutability": "view",
      "type": "function"
    },
    {
      "inputs": [
        {
          "internalType": "bytes32",
          "name": "_contractId",
          "type": "bytes32"
        }
      ],
      "name": "getContract2",
      "outputs": [
        {
          "internalType": "uint256",
          "name": "reqTill",
          "type": "uint256"
        },
        {
          "internalType": "uint256",
          "name": "acceptTill",
          "type": "uint256"
        },
        {
          "internalType": "uint256",
          "name": "lockedTill",
          "type": "uint256"
        },
        {
          "internalType": "uint256",
          "name": "releaseTill",
          "type": "uint256"
        }
      ],
      "stateMutability": "view",
      "type": "function"
    },
    {
      "inputs": [
        {
          "internalType": "bytes32",
          "name": "_contractId",
          "type": "bytes32"
        },
        {
          "internalType": "bytes32",
          "name": "_secret2Hash",
          "type": "bytes32"
        }
      ],
      "name": "giveLoan",
      "outputs": [],
      "stateMutability": "nonpayable",
      "type": "function"
    },
    {
      "inputs": [
        {
          "internalType": "bytes32",
          "name": "_contractId",
          "type": "bytes32"
        },
        {
          "internalType": "bytes32",
          "name": "_preImage2",
          "type": "bytes32"
        }
      ],
      "name": "loanDefault",
      "outputs": [
        {
          "internalType": "bool",
          "name": "",
          "type": "bool"
        }
      ],
      "stateMutability": "nonpayable",
      "type": "function"
    },
    {
      "inputs": [],
      "name": "noTakersForLoan",
      "outputs": [],
      "stateMutability": "pure",
      "type": "function"
    },
    {
      "inputs": [],
      "name": "owner",
      "outputs": [
        {
          "internalType": "address",
          "name": "",
          "type": "address"
        }
      ],
      "stateMutability": "view",
      "type": "function"
    },
    {
      "inputs": [
        {
          "internalType": "bytes32",
          "name": "_contractId",
          "type": "bytes32"
        },
        {
          "internalType": "bytes32",
          "name": "_preImage2",
          "type": "bytes32"
        }
      ],
      "name": "releaseCollatoral",
      "outputs": [],
      "stateMutability": "nonpayable",
      "type": "function"
    },
    {
      "inputs": [],
      "name": "renounceOwnership",
      "outputs": [],
      "stateMutability": "nonpayable",
      "type": "function"
    },
    {
      "inputs": [
        {
          "internalType": "address",
          "name": "newOwner",
          "type": "address"
        }
      ],
      "name": "transferOwnership",
      "outputs": [],
      "stateMutability": "nonpayable",
      "type": "function"
    }
  ],
  "bytecode": "0x608060405234801561001057600080fd5b5061002d61002261003260201b60201c565b61003a60201b60201c565b6100fe565b600033905090565b60008060009054906101000a900473ffffffffffffffffffffffffffffffffffffffff169050816000806101000a81548173ffffffffffffffffffffffffffffffffffffffff021916908373ffffffffffffffffffffffffffffffffffffffff1602179055508173ffffffffffffffffffffffffffffffffffffffff168173ffffffffffffffffffffffffffffffffffffffff167f8be0079c531659141344cd1fd0a4f28419497f9722a3daafe3b4186f6b6457e060405160405180910390a35050565b611be48061010d6000396000f3fe608060405234801561001057600080fd5b50600436106100a95760003560e01c80639ea37a3d116100715780639ea37a3d1461012f578063ad5f28f21461016a578063bb5f759414610186578063c57ca2e6146101b6578063e1f270bb146101d2578063f2fde38b146101ee576100a9565b8063715018a6146100ae57806374e34b83146100b8578063773e7717146100c2578063849af09a146100de5780638da5cb5b14610111575b600080fd5b6100b661020a565b005b6100c0610292565b005b6100dc60048036038101906100d79190611355565b6102d5565b005b6100f860048036038101906100f3919061132c565b610485565b604051610108949392919061186a565b60405180910390f35b6101196104ef565b60405161012691906115c8565b60405180910390f35b6101496004803603810190610144919061132c565b610518565b6040516101619c9b9a99989796959493929190611650565b60405180910390f35b610184600480360381019061017f9190611355565b61066f565b005b6101a0600480360381019061019b9190611355565b6107a0565b6040516101ad919061161a565b60405180910390f35b6101d060048036038101906101cb919061127a565b61099e565b005b6101ec60048036038101906101e79190611355565b610e48565b005b61020860048036038101906102039190611251565b610f3d565b005b610212611035565b73ffffffffffffffffffffffffffffffffffffffff166102306104ef565b73ffffffffffffffffffffffffffffffffffffffff1614610286576040517f08c379a000000000000000000000000000000000000000000000000000000000815260040161027d906117ca565b60405180910390fd5b610290600061103d565b565b60006102d3576040517f08c379a00000000000000000000000000000000000000000000000000000000081526004016102ca9061180a565b60405180910390fd5b565b816102df81611101565b61031e576040517f08c379a00000000000000000000000000000000000000000000000000000000081526004016103159061174a565b60405180910390fd5b6000600160008581526020019081526020016000209050600260ff1681600a0160149054906101000a900460ff1660ff161461038f576040517f08c379a00000000000000000000000000000000000000000000000000000000081526004016103869061184a565b60405180910390fd5b61039d816001015484611170565b828160030181905550600781600a0160146101000a81548160ff021916908360ff1602179055508060040160009054906101000a900473ffffffffffffffffffffffffffffffffffffffff1673ffffffffffffffffffffffffffffffffffffffff166342842e0e3083600a0160009054906101000a900473ffffffffffffffffffffffffffffffffffffffff1684600501546040518463ffffffff1660e01b815260040161044d939291906115e3565b600060405180830381600087803b15801561046757600080fd5b505af115801561047b573d6000803e3d6000fd5b5050505050505050565b6000806000806000151561049886611101565b151514156104b35760008060008093509350935093506104e8565b600060016000878152602001908152602001600020905080600b015481600c015482600d015483600e01549450945094509450505b9193509193565b60008060009054906101000a900473ffffffffffffffffffffffffffffffffffffffff16905090565b600080600080600080600080600080600080600015156105378e611101565b15151415610586576000806000806000806000806000806000808b60001b9b508a60001b9a508960001b99508860001b98509b509b509b509b509b509b509b509b509b509b509b509b50610660565b6000600160008f8152602001908152602001600020905080600001548160010154826002015483600301548460040160009054906101000a900473ffffffffffffffffffffffffffffffffffffffff1685600501548660060154876007015488600801548960090160009054906101000a900473ffffffffffffffffffffffffffffffffffffffff168a600a0160009054906101000a900473ffffffffffffffffffffffffffffffffffffffff168b600a0160149054906101000a900460ff169c509c509c509c509c509c509c509c509c509c509c509c50505b91939597999b5091939597999b565b8161067981611101565b6106b8576040517f08c379a00000000000000000000000000000000000000000000000000000000081526004016106af9061174a565b60405180910390fd5b6000600160008581526020019081526020016000209050600060ff1681600a0160149054906101000a900460ff1660ff1614610729576040517f08c379a0000000000000000000000000000000000000000000000000000000008152600401610720906117ea565b60405180910390fd5b82816001018190555061073a611035565b8160090160006101000a81548173ffffffffffffffffffffffffffffffffffffffff021916908373ffffffffffffffffffffffffffffffffffffffff160217905550600181600a0160146101000a81548160ff021916908360ff16021790555050505050565b6000826107ac81611101565b6107eb576040517f08c379a00000000000000000000000000000000000000000000000000000000081526004016107e29061174a565b60405180910390fd5b6000600160008681526020019081526020016000209050600260ff1681600a0160149054906101000a900460ff1660ff161461085c576040517f08c379a00000000000000000000000000000000000000000000000000000000081526004016108539061184a565b60405180910390fd5b4281600e0154106108a2576040517f08c379a00000000000000000000000000000000000000000000000000000000081526004016108999061178a565b60405180910390fd5b6108b0816001015485611170565b838160030181905550600681600a0160146101000a81548160ff021916908360ff1602179055508060040160009054906101000a900473ffffffffffffffffffffffffffffffffffffffff1673ffffffffffffffffffffffffffffffffffffffff166342842e0e308360090160009054906101000a900473ffffffffffffffffffffffffffffffffffffffff1684600501546040518463ffffffff1660e01b8152600401610960939291906115e3565b600060405180830381600087803b15801561097a57600080fd5b505af115801561098e573d6000803e3d6000fd5b5050505060019250505092915050565b834281116109e1576040517f08c379a00000000000000000000000000000000000000000000000000000000081526004016109d89061170a565b60405180910390fd5b83428111610a24576040517f08c379a0000000000000000000000000000000000000000000000000000000008152600401610a1b9061170a565b60405180910390fd5b83428111610a67576040517f08c379a0000000000000000000000000000000000000000000000000000000008152600401610a5e9061170a565b60405180910390fd5b83428111610aaa576040517f08c379a0000000000000000000000000000000000000000000000000000000008152600401610aa19061170a565b60405180910390fd5b6000610abe610ab7611035565b8e8e6111dc565b9050610ac981611101565b15610b09576040517f08c379a0000000000000000000000000000000000000000000000000000000008152600401610b00906117aa565b60405180910390fd5b6040518061020001604052808b81526020016000801b81526020016000801b81526020016000801b81526020018e73ffffffffffffffffffffffffffffffffffffffff1681526020018d8152602001600081526020016000815260200160008152602001600073ffffffffffffffffffffffffffffffffffffffff168152602001610b92611035565b73ffffffffffffffffffffffffffffffffffffffff168152602001600060ff1681526020018a815260200189815260200188815260200187815250600160008381526020019081526020016000206000820151816000015560208201518160010155604082015181600201556060820151816003015560808201518160040160006101000a81548173ffffffffffffffffffffffffffffffffffffffff021916908373ffffffffffffffffffffffffffffffffffffffff16021790555060a0820151816005015560c0820151816006015560e0820151816007015561010082015181600801556101208201518160090160006101000a81548173ffffffffffffffffffffffffffffffffffffffff021916908373ffffffffffffffffffffffffffffffffffffffff16021790555061014082015181600a0160006101000a81548173ffffffffffffffffffffffffffffffffffffffff021916908373ffffffffffffffffffffffffffffffffffffffff16021790555061016082015181600a0160146101000a81548160ff021916908360ff16021790555061018082015181600b01556101a082015181600c01556101c082015181600d01556101e082015181600e01559050508c73ffffffffffffffffffffffffffffffffffffffff166342842e0e8c308f6040518463ffffffff1660e01b8152600401610d96939291906115e3565b600060405180830381600087803b158015610db057600080fd5b505af1158015610dc4573d6000803e3d6000fd5b50505050600060ff168d73ffffffffffffffffffffffffffffffffffffffff16610dec611035565b73ffffffffffffffffffffffffffffffffffffffff167f1661d573f00649ebdcedb1d20acda26f1a4621a22b3539f3ae4338dd7d08fdbd84604051610e319190611635565b60405180910390a450505050505050505050505050565b81610e5281611101565b610e91576040517f08c379a0000000000000000000000000000000000000000000000000000000008152600401610e889061174a565b60405180910390fd5b6000600160008581526020019081526020016000209050600160ff1681600a0160149054906101000a900460ff1660ff1614610f02576040517f08c379a0000000000000000000000000000000000000000000000000000000008152600401610ef99061176a565b60405180910390fd5b610f10816000015484611170565b828160020181905550600281600a0160146101000a81548160ff021916908360ff16021790555050505050565b610f45611035565b73ffffffffffffffffffffffffffffffffffffffff16610f636104ef565b73ffffffffffffffffffffffffffffffffffffffff1614610fb9576040517f08c379a0000000000000000000000000000000000000000000000000000000008152600401610fb0906117ca565b60405180910390fd5b600073ffffffffffffffffffffffffffffffffffffffff168173ffffffffffffffffffffffffffffffffffffffff161415611029576040517f08c379a00000000000000000000000000000000000000000000000000000000081526004016110209061172a565b60405180910390fd5b6110328161103d565b50565b600033905090565b60008060009054906101000a900473ffffffffffffffffffffffffffffffffffffffff169050816000806101000a81548173ffffffffffffffffffffffffffffffffffffffff021916908373ffffffffffffffffffffffffffffffffffffffff1602179055508173ffffffffffffffffffffffffffffffffffffffff168173ffffffffffffffffffffffffffffffffffffffff167f8be0079c531659141344cd1fd0a4f28419497f9722a3daafe3b4186f6b6457e060405160405180910390a35050565b60008073ffffffffffffffffffffffffffffffffffffffff1660016000848152602001908152602001600020600a0160009054906101000a900473ffffffffffffffffffffffffffffffffffffffff1673ffffffffffffffffffffffffffffffffffffffff1614159050919050565b806040516020016111819190611635565b6040516020818303038152906040528051906020012082146111d8576040517f08c379a00000000000000000000000000000000000000000000000000000000081526004016111cf9061182a565b60405180910390fd5b5050565b60008383836040516020016111f39392919061158b565b6040516020818303038152906040528051906020012090509392505050565b60008135905061122181611b69565b92915050565b60008135905061123681611b80565b92915050565b60008135905061124b81611b97565b92915050565b60006020828403121561126357600080fd5b600061127184828501611212565b91505092915050565b600080600080600080600080610100898b03121561129757600080fd5b60006112a58b828c01611212565b98505060206112b68b828c0161123c565b97505060406112c78b828c01611212565b96505060606112d88b828c01611227565b95505060806112e98b828c0161123c565b94505060a06112fa8b828c0161123c565b93505060c061130b8b828c0161123c565b92505060e061131c8b828c0161123c565b9150509295985092959890939650565b60006020828403121561133e57600080fd5b600061134c84828501611227565b91505092915050565b6000806040838503121561136857600080fd5b600061137685828601611227565b925050602061138785828601611227565b9150509250929050565b61139a816118c0565b82525050565b6113b16113ac826118c0565b61191f565b82525050565b6113c0816118d2565b82525050565b6113cf816118de565b82525050565b60006113e26023836118af565b91506113ed8261195a565b604082019050919050565b60006114056026836118af565b9150611410826119a9565b604082019050919050565b60006114286019836118af565b9150611433826119f8565b602082019050919050565b600061144b6017836118af565b915061145682611a21565b602082019050919050565b600061146e601a836118af565b915061147982611a4a565b602082019050919050565b60006114916017836118af565b915061149c82611a73565b602082019050919050565b60006114b46020836118af565b91506114bf82611a9c565b602082019050919050565b60006114d76015836118af565b91506114e282611ac5565b602082019050919050565b60006114fa6015836118af565b915061150582611aee565b602082019050919050565b600061151d601c836118af565b915061152882611b17565b602082019050919050565b6000611540601b836118af565b915061154b82611b40565b602082019050919050565b61155f81611908565b82525050565b61157661157182611908565b611943565b82525050565b61158581611912565b82525050565b600061159782866113a0565b6014820191506115a782856113a0565b6014820191506115b78284611565565b602082019150819050949350505050565b60006020820190506115dd6000830184611391565b92915050565b60006060820190506115f86000830186611391565b6116056020830185611391565b6116126040830184611556565b949350505050565b600060208201905061162f60008301846113b7565b92915050565b600060208201905061164a60008301846113c6565b92915050565b600061018082019050611666600083018f6113c6565b611673602083018e6113c6565b611680604083018d6113c6565b61168d606083018c6113c6565b61169a608083018b611391565b6116a760a083018a611556565b6116b460c0830189611556565b6116c160e0830188611556565b6116cf610100830187611556565b6116dd610120830186611391565b6116eb610140830185611391565b6116f961016083018461157c565b9d9c50505050505050505050505050565b60006020820190508181036000830152611723816113d5565b9050919050565b60006020820190508181036000830152611743816113f8565b9050919050565b600060208201905081810360008301526117638161141b565b9050919050565b600060208201905081810360008301526117838161143e565b9050919050565b600060208201905081810360008301526117a381611461565b9050919050565b600060208201905081810360008301526117c381611484565b9050919050565b600060208201905081810360008301526117e3816114a7565b9050919050565b60006020820190508181036000830152611803816114ca565b9050919050565b60006020820190508181036000830152611823816114ed565b9050919050565b6000602082019050818103600083015261184381611510565b9050919050565b6000602082019050818103600083015261186381611533565b9050919050565b600060808201905061187f6000830187611556565b61188c6020830186611556565b6118996040830185611556565b6118a66060830184611556565b95945050505050565b600082825260208201905092915050565b60006118cb826118e8565b9050919050565b60008115159050919050565b6000819050919050565b600073ffffffffffffffffffffffffffffffffffffffff82169050919050565b6000819050919050565b600060ff82169050919050565b600061192a82611931565b9050919050565b600061193c8261194d565b9050919050565b6000819050919050565b60008160601b9050919050565b7f74696d656c6f636b2074696d65206d75737420626520696e207468652066757460008201527f7572650000000000000000000000000000000000000000000000000000000000602082015250565b7f4f776e61626c653a206e6577206f776e657220697320746865207a65726f206160008201527f6464726573730000000000000000000000000000000000000000000000000000602082015250565b7f636f6e7472616374496420646f6573206e6f7420657869737400000000000000600082015250565b7f6d7573742062652073746174655f626f6246756e646564000000000000000000600082015250565b7f72656c6561736554696c6c206e6f742079657420706173736564000000000000600082015250565b7f436f6e747261637420616c726561647920657869737473000000000000000000600082015250565b7f4f776e61626c653a2063616c6c6572206973206e6f7420746865206f776e6572600082015250565b7f6d7573742062652073746174655f637265617465640000000000000000000000600082015250565b7f746f646f3a206e6f7420696d706c656d656e7465640000000000000000000000600082015250565b7f686173686c6f636b206861736820646f6573206e6f74206d6174636800000000600082015250565b7f6d7573742062652073746174655f6d6f766564546f457363726f770000000000600082015250565b611b72816118c0565b8114611b7d57600080fd5b50565b611b89816118de565b8114611b9457600080fd5b50565b611ba081611908565b8114611bab57600080fd5b5056fea2646970667358221220993b8a827b3ed0b1ed7d454fb25f3140adffacf5b0a1a05bbd699d5e7f820dac64736f6c63430008040033",
  "linkReferences": {},
  "deployedLinkReferences": {}
}