{
  "_format": "hh-sol-artifact-1",
  "contractName": "AssetSide",
  "sourceName": "contracts/assetSide.sol",
  "abi": [
    {
      "anonymous": false,
      "inputs": [
        {
          "indexed": true,
          "internalType": "address",
          "name": "bobsWallet",
          "type": "address"
        },
        {
          "indexed": true,
          "internalType": "address",
          "name": "asset",
          "type": "address"
        },
        {
          "indexed": true,
          "internalType": "uint256",
          "name": "status",
          "type": "uint256"
        },
        {
          "indexed": false,
          "internalType": "bytes32",
          "name": "contractId",
          "type": "bytes32"
        }
      ],
      "name": "LoanGiven",
      "type": "event"
    },
    {
      "anonymous": false,
      "inputs": [
        {
          "indexed": true,
          "internalType": "address",
          "name": "alexWallet",
          "type": "address"
        },
        {
          "indexed": true,
          "internalType": "address",
          "name": "asset",
          "type": "address"
        },
        {
          "indexed": true,
          "internalType": "uint256",
          "name": "status",
          "type": "uint256"
        },
        {
          "indexed": false,
          "internalType": "bytes32",
          "name": "contractId",
          "type": "bytes32"
        }
      ],
      "name": "LoanRequest",
      "type": "event"
    },
    {
      "anonymous": false,
      "inputs": [
        {
          "indexed": true,
          "internalType": "address",
          "name": "previousOwner",
          "type": "address"
        },
        {
          "indexed": true,
          "internalType": "address",
          "name": "newOwner",
          "type": "address"
        }
      ],
      "name": "OwnershipTransferred",
      "type": "event"
    },
    {
      "anonymous": false,
      "inputs": [],
      "name": "Received",
      "type": "event"
    },
    {
      "inputs": [
        {
          "internalType": "bytes32",
          "name": "_contractId",
          "type": "bytes32"
        },
        {
          "internalType": "bytes32",
          "name": "_preImage1",
          "type": "bytes32"
        }
      ],
      "name": "acceptLoan",
      "outputs": [],
      "stateMutability": "nonpayable",
      "type": "function"
    },
    {
      "inputs": [
        {
          "internalType": "address",
          "name": "_asset",
          "type": "address"
        },
        {
          "internalType": "uint256",
          "name": "_tokenId",
          "type": "uint256"
        },
        {
          "internalType": "address",
          "name": "_assetOwner",
          "type": "address"
        },
        {
          "internalType": "bytes32",
          "name": "_secret1Hash",
          "type": "bytes32"
        },
        {
          "internalType": "string",
          "name": "_secret1Encrypted",
          "type": "string"
        },
        {
          "internalType": "uint256",
          "name": "_lockedTill",
          "type": "uint256"
        }
      ],
      "name": "askForLoan",
      "outputs": [],
      "stateMutability": "nonpayable",
      "type": "function"
    },
    {
      "inputs": [
        {
          "internalType": "address",
          "name": "_alexWallet",
          "type": "address"
        },
        {
          "internalType": "address",
          "name": "_asset",
          "type": "address"
        },
        {
          "internalType": "uint256",
          "name": "_tokenId",
          "type": "uint256"
        }
      ],
      "name": "computeContractId",
      "outputs": [
        {
          "internalType": "bytes32",
          "name": "",
          "type": "bytes32"
        }
      ],
      "stateMutability": "pure",
      "type": "function"
    },
    {
      "inputs": [
        {
          "internalType": "bytes32",
          "name": "_contractId",
          "type": "bytes32"
        }
      ],
      "name": "getContract1",
      "outputs": [
        {
          "internalType": "address",
          "name": "assetContract",
          "type": "address"
        },
        {
          "internalType": "uint256",
          "name": "tokenId",
          "type": "uint256"
        },
        {
          "internalType": "uint256",
          "name": "loanAmount",
          "type": "uint256"
        },
        {
          "internalType": "uint256",
          "name": "loanInterest",
          "type": "uint256"
        },
        {
          "internalType": "uint256",
          "name": "lenderDeposit",
          "type": "uint256"
        },
        {
          "internalType": "address",
          "name": "bobsWalet",
          "type": "address"
        },
        {
          "internalType": "address",
          "name": "alexWallet",
          "type": "address"
        },
        {
          "internalType": "uint8",
          "name": "status",
          "type": "uint8"
        }
      ],
      "stateMutability": "view",
      "type": "function"
    },
    {
      "inputs": [
        {
          "internalType": "bytes32",
          "name": "_contractId",
          "type": "bytes32"
        }
      ],
      "name": "getContract2",
      "outputs": [
        {
          "internalType": "bytes32",
          "name": "secret1Hash",
          "type": "bytes32"
        },
        {
          "internalType": "bytes32",
          "name": "secret2Hash",
          "type": "bytes32"
        },
        {
          "internalType": "bytes32",
          "name": "preimage1",
          "type": "bytes32"
        },
        {
          "internalType": "bytes32",
          "name": "preimage2",
          "type": "bytes32"
        },
        {
          "internalType": "uint256",
          "name": "reqTill",
          "type": "uint256"
        },
        {
          "internalType": "uint256",
          "name": "acceptTill",
          "type": "uint256"
        },
        {
          "internalType": "uint256",
          "name": "lockedTill",
          "type": "uint256"
        },
        {
          "internalType": "uint256",
          "name": "releaseTill",
          "type": "uint256"
        }
      ],
      "stateMutability": "view",
      "type": "function"
    },
    {
      "inputs": [
        {
          "internalType": "bytes32",
          "name": "_contractId",
          "type": "bytes32"
        },
        {
          "internalType": "bytes32",
          "name": "_secret2Hash",
          "type": "bytes32"
        },
        {
          "internalType": "string",
          "name": "_secret2Encrypted",
          "type": "string"
        }
      ],
      "name": "giveLoan",
      "outputs": [],
      "stateMutability": "nonpayable",
      "type": "function"
    },
    {
      "inputs": [
        {
          "internalType": "bytes32",
          "name": "_contractId",
          "type": "bytes32"
        },
        {
          "internalType": "bytes32",
          "name": "_preImage2",
          "type": "bytes32"
        }
      ],
      "name": "loanDefault",
      "outputs": [
        {
          "internalType": "bool",
          "name": "",
          "type": "bool"
        }
      ],
      "stateMutability": "nonpayable",
      "type": "function"
    },
    {
      "inputs": [],
      "name": "noTakersForLoan",
      "outputs": [],
      "stateMutability": "pure",
      "type": "function"
    },
    {
      "inputs": [
        {
          "internalType": "address",
          "name": "_operator",
          "type": "address"
        },
        {
          "internalType": "address",
          "name": "_from",
          "type": "address"
        },
        {
          "internalType": "uint256",
          "name": "_tokenId",
          "type": "uint256"
        },
        {
          "internalType": "bytes",
          "name": "_data",
          "type": "bytes"
        }
      ],
      "name": "onERC721Received",
      "outputs": [
        {
          "internalType": "bytes4",
          "name": "",
          "type": "bytes4"
        }
      ],
      "stateMutability": "nonpayable",
      "type": "function"
    },
    {
      "inputs": [],
      "name": "owner",
      "outputs": [
        {
          "internalType": "address",
          "name": "",
          "type": "address"
        }
      ],
      "stateMutability": "view",
      "type": "function"
    },
    {
      "inputs": [
        {
          "internalType": "bytes32",
          "name": "_contractId",
          "type": "bytes32"
        },
        {
          "internalType": "bytes32",
          "name": "_preImage2",
          "type": "bytes32"
        }
      ],
      "name": "releaseCollatoral",
      "outputs": [],
      "stateMutability": "nonpayable",
      "type": "function"
    },
    {
      "inputs": [],
      "name": "renounceOwnership",
      "outputs": [],
      "stateMutability": "nonpayable",
      "type": "function"
    },
    {
      "inputs": [
        {
          "internalType": "address",
          "name": "newOwner",
          "type": "address"
        }
      ],
      "name": "transferOwnership",
      "outputs": [],
      "stateMutability": "nonpayable",
      "type": "function"
    }
  ],
  "bytecode": "0x608060405234801561001057600080fd5b5061002d61002261003260201b60201c565b61003a60201b60201c565b6100fe565b600033905090565b60008060009054906101000a900473ffffffffffffffffffffffffffffffffffffffff169050816000806101000a81548173ffffffffffffffffffffffffffffffffffffffff021916908373ffffffffffffffffffffffffffffffffffffffff1602179055508173ffffffffffffffffffffffffffffffffffffffff168173ffffffffffffffffffffffffffffffffffffffff167f8be0079c531659141344cd1fd0a4f28419497f9722a3daafe3b4186f6b6457e060405160405180910390a35050565b612216806200010e6000396000f3fe608060405234801561001057600080fd5b50600436106100cf5760003560e01c8063849af09a1161008c578063bb5f759411610066578063bb5f7594146101f8578063e1f270bb14610228578063f2fde38b14610244578063fa868db114610260576100cf565b8063849af09a1461016c5780638da5cb5b146101a35780639ea37a3d146101c1576100cf565b8063150b7a02146100d457806358aa9c79146101045780635eda508614610120578063715018a61461013c57806374e34b8314610146578063773e771714610150575b600080fd5b6100ee60048036038101906100e991906115c7565b610290565b6040516100fb9190611b7e565b60405180910390f35b61011e6004803603810190610119919061174d565b6102d1565b005b61013a60048036038101906101359190611647565b6104de565b005b610144610928565b005b61014e6109b0565b005b61016a60048036038101906101659190611711565b6109f3565b005b610186600480360381019061018191906116e8565b610ba3565b60405161019a989796959493929190611b00565b60405180910390f35b6101ab610c59565b6040516101b891906119fa565b60405180910390f35b6101db60048036038101906101d691906116e8565b610c82565b6040516101ef989796959493929190611a4c565b60405180910390f35b610212600480360381019061020d9190611711565b610d8d565b60405161021f9190611aca565b60405180910390f35b610242600480360381019061023d9190611711565b610f8b565b005b61025e6004803603810190610259919061154f565b611080565b005b61027a60048036038101906102759190611578565b611178565b6040516102879190611ae5565b60405180910390f35b60007f544c765b33ca411cce832250371569244f765a17fcd217832be093f0fd5fa45b60405160405180910390a163150b7a0260e01b905095945050505050565b826102db8161118e565b61031a576040517f08c379a000000000000000000000000000000000000000000000000000000000815260040161031190611bd9565b60405180910390fd5b6000600160008681526020019081526020016000209050600060ff1681600c0160149054906101000a900460ff1660ff161461038b576040517f08c379a000000000000000000000000000000000000000000000000000000000815260040161038290611c79565b60405180910390fd5b838160030181905550828160010190805190602001906103ac9291906113bb565b506103b56111fd565b81600b0160006101000a81548173ffffffffffffffffffffffffffffffffffffffff021916908373ffffffffffffffffffffffffffffffffffffffff160217905550600181600c0160146101000a81548160ff021916908360ff16021790555080600c0160149054906101000a900460ff1660ff168160060160009054906101000a900473ffffffffffffffffffffffffffffffffffffffff1673ffffffffffffffffffffffffffffffffffffffff1682600b0160009054906101000a900473ffffffffffffffffffffffffffffffffffffffff1673ffffffffffffffffffffffffffffffffffffffff167fe480dd6a21fc5c0bbacd9806b58b794052d1ee5d1a2f214822bbb4077dca192a886040516104cf9190611ae5565b60405180910390a45050505050565b80428111610521576040517f08c379a000000000000000000000000000000000000000000000000000000000815260040161051890611b99565b60405180910390fd5b600061053561052e6111fd565b8989611205565b905060008060006105458661123b565b9250925092506105548461118e565b15610594576040517f08c379a000000000000000000000000000000000000000000000000000000000815260040161058b90611c39565b60405180910390fd5b6040518061024001604052808881526020016040518060200160405280600081525081526020018981526020016000801b81526020016000801b81526020016000801b81526020018c73ffffffffffffffffffffffffffffffffffffffff1681526020018b8152602001600081526020016000815260200160008152602001600073ffffffffffffffffffffffffffffffffffffffff1681526020016106386111fd565b73ffffffffffffffffffffffffffffffffffffffff168152602001600060ff168152602001848152602001838152602001878152602001828152506001600086815260200190815260200160002060008201518160000190805190602001906106a29291906113bb565b5060208201518160010190805190602001906106bf9291906113bb565b5060408201518160020155606082015181600301556080820151816004015560a0820151816005015560c08201518160060160006101000a81548173ffffffffffffffffffffffffffffffffffffffff021916908373ffffffffffffffffffffffffffffffffffffffff16021790555060e082015181600701556101008201518160080155610120820151816009015561014082015181600a015561016082015181600b0160006101000a81548173ffffffffffffffffffffffffffffffffffffffff021916908373ffffffffffffffffffffffffffffffffffffffff16021790555061018082015181600c0160006101000a81548173ffffffffffffffffffffffffffffffffffffffff021916908373ffffffffffffffffffffffffffffffffffffffff1602179055506101a082015181600c0160146101000a81548160ff021916908360ff1602179055506101c082015181600d01556101e082015181600e015561020082015181600f015561022082015181601001559050508a73ffffffffffffffffffffffffffffffffffffffff166342842e0e8a308d6040518463ffffffff1660e01b815260040161087893929190611a15565b600060405180830381600087803b15801561089257600080fd5b505af11580156108a6573d6000803e3d6000fd5b50505050600060ff168b73ffffffffffffffffffffffffffffffffffffffff166108ce6111fd565b73ffffffffffffffffffffffffffffffffffffffff167f1661d573f00649ebdcedb1d20acda26f1a4621a22b3539f3ae4338dd7d08fdbd876040516109139190611ae5565b60405180910390a45050505050505050505050565b6109306111fd565b73ffffffffffffffffffffffffffffffffffffffff1661094e610c59565b73ffffffffffffffffffffffffffffffffffffffff16146109a4576040517f08c379a000000000000000000000000000000000000000000000000000000000815260040161099b90611c59565b60405180910390fd5b6109ae600061128b565b565b60006109f1576040517f08c379a00000000000000000000000000000000000000000000000000000000081526004016109e890611c99565b60405180910390fd5b565b816109fd8161118e565b610a3c576040517f08c379a0000000000000000000000000000000000000000000000000000000008152600401610a3390611bd9565b60405180910390fd5b6000600160008581526020019081526020016000209050600260ff1681600c0160149054906101000a900460ff1660ff1614610aad576040517f08c379a0000000000000000000000000000000000000000000000000000000008152600401610aa490611cd9565b60405180910390fd5b610abb81600301548461134f565b828160050181905550600781600c0160146101000a81548160ff021916908360ff1602179055508060060160009054906101000a900473ffffffffffffffffffffffffffffffffffffffff1673ffffffffffffffffffffffffffffffffffffffff166342842e0e3083600c0160009054906101000a900473ffffffffffffffffffffffffffffffffffffffff1684600701546040518463ffffffff1660e01b8152600401610b6b93929190611a15565b600060405180830381600087803b158015610b8557600080fd5b505af1158015610b99573d6000803e3d6000fd5b5050505050505050565b60008060008060008060008060001515610bbc8a61118e565b15151415610bfd576000806000806000806000808760001b97508660001b96508560001b95508460001b945097509750975097509750975097509750610c4e565b6000600160008b81526020019081526020016000209050806002015481600301548260040154836005015484600d015485600e015486600f0154876010015498509850985098509850985098509850505b919395975091939597565b60008060009054906101000a900473ffffffffffffffffffffffffffffffffffffffff16905090565b60008060008060008060008060001515610c9b8a61118e565b15151415610cc45760008060008060008060008097509750975097509750975097509750610d82565b6000600160008b815260200190815260200160002090508060060160009054906101000a900473ffffffffffffffffffffffffffffffffffffffff1681600701548260080154836009015484600a015485600b0160009054906101000a900473ffffffffffffffffffffffffffffffffffffffff1686600c0160009054906101000a900473ffffffffffffffffffffffffffffffffffffffff1687600c0160149054906101000a900460ff1698509850985098509850985098509850505b919395975091939597565b600082610d998161118e565b610dd8576040517f08c379a0000000000000000000000000000000000000000000000000000000008152600401610dcf90611bd9565b60405180910390fd5b6000600160008681526020019081526020016000209050600260ff1681600c0160149054906101000a900460ff1660ff1614610e49576040517f08c379a0000000000000000000000000000000000000000000000000000000008152600401610e4090611cd9565b60405180910390fd5b42816010015410610e8f576040517f08c379a0000000000000000000000000000000000000000000000000000000008152600401610e8690611c19565b60405180910390fd5b610e9d81600301548561134f565b838160050181905550600681600c0160146101000a81548160ff021916908360ff1602179055508060060160009054906101000a900473ffffffffffffffffffffffffffffffffffffffff1673ffffffffffffffffffffffffffffffffffffffff166342842e0e3083600b0160009054906101000a900473ffffffffffffffffffffffffffffffffffffffff1684600701546040518463ffffffff1660e01b8152600401610f4d93929190611a15565b600060405180830381600087803b158015610f6757600080fd5b505af1158015610f7b573d6000803e3d6000fd5b5050505060019250505092915050565b81610f958161118e565b610fd4576040517f08c379a0000000000000000000000000000000000000000000000000000000008152600401610fcb90611bd9565b60405180910390fd5b6000600160008581526020019081526020016000209050600160ff1681600c0160149054906101000a900460ff1660ff1614611045576040517f08c379a000000000000000000000000000000000000000000000000000000000815260040161103c90611bf9565b60405180910390fd5b61105381600201548461134f565b828160040181905550600281600c0160146101000a81548160ff021916908360ff16021790555050505050565b6110886111fd565b73ffffffffffffffffffffffffffffffffffffffff166110a6610c59565b73ffffffffffffffffffffffffffffffffffffffff16146110fc576040517f08c379a00000000000000000000000000000000000000000000000000000000081526004016110f390611c59565b60405180910390fd5b600073ffffffffffffffffffffffffffffffffffffffff168173ffffffffffffffffffffffffffffffffffffffff16141561116c576040517f08c379a000000000000000000000000000000000000000000000000000000000815260040161116390611bb9565b60405180910390fd5b6111758161128b565b50565b6000611185848484611205565b90509392505050565b60008073ffffffffffffffffffffffffffffffffffffffff1660016000848152602001908152602001600020600c0160009054906101000a900473ffffffffffffffffffffffffffffffffffffffff1673ffffffffffffffffffffffffffffffffffffffff1614159050919050565b600033905090565b600083838360405160200161121c939291906119bd565b6040516020818303038152906040528051906020012090509392505050565b60008060008062015180426112509190611d60565b9050600062015180826112639190611d60565b9050600062015180876112769190611d60565b90508282829550955095505050509193909250565b60008060009054906101000a900473ffffffffffffffffffffffffffffffffffffffff169050816000806101000a81548173ffffffffffffffffffffffffffffffffffffffff021916908373ffffffffffffffffffffffffffffffffffffffff1602179055508173ffffffffffffffffffffffffffffffffffffffff168173ffffffffffffffffffffffffffffffffffffffff167f8be0079c531659141344cd1fd0a4f28419497f9722a3daafe3b4186f6b6457e060405160405180910390a35050565b806040516020016113609190611ae5565b6040516020818303038152906040528051906020012082146113b7576040517f08c379a00000000000000000000000000000000000000000000000000000000081526004016113ae90611cb9565b60405180910390fd5b5050565b8280546113c790611e50565b90600052602060002090601f0160209004810192826113e95760008555611430565b82601f1061140257805160ff1916838001178555611430565b82800160010185558215611430579182015b8281111561142f578251825591602001919060010190611414565b5b50905061143d9190611441565b5090565b5b8082111561145a576000816000905550600101611442565b5090565b600061147161146c84611d1e565b611cf9565b90508281526020810184848401111561148957600080fd5b611494848285611e41565b509392505050565b6000813590506114ab8161219b565b92915050565b6000813590506114c0816121b2565b92915050565b60008083601f8401126114d857600080fd5b8235905067ffffffffffffffff8111156114f157600080fd5b60208301915083600182028301111561150957600080fd5b9250929050565b600082601f83011261152157600080fd5b813561153184826020860161145e565b91505092915050565b600081359050611549816121c9565b92915050565b60006020828403121561156157600080fd5b600061156f8482850161149c565b91505092915050565b60008060006060848603121561158d57600080fd5b600061159b8682870161149c565b93505060206115ac8682870161149c565b92505060406115bd8682870161153a565b9150509250925092565b6000806000806000608086880312156115df57600080fd5b60006115ed8882890161149c565b95505060206115fe8882890161149c565b945050604061160f8882890161153a565b935050606086013567ffffffffffffffff81111561162c57600080fd5b611638888289016114c6565b92509250509295509295909350565b60008060008060008060c0878903121561166057600080fd5b600061166e89828a0161149c565b965050602061167f89828a0161153a565b955050604061169089828a0161149c565b94505060606116a189828a016114b1565b935050608087013567ffffffffffffffff8111156116be57600080fd5b6116ca89828a01611510565b92505060a06116db89828a0161153a565b9150509295509295509295565b6000602082840312156116fa57600080fd5b6000611708848285016114b1565b91505092915050565b6000806040838503121561172457600080fd5b6000611732858286016114b1565b9250506020611743858286016114b1565b9150509250929050565b60008060006060848603121561176257600080fd5b6000611770868287016114b1565b9350506020611781868287016114b1565b925050604084013567ffffffffffffffff81111561179e57600080fd5b6117aa86828701611510565b9150509250925092565b6117bd81611db6565b82525050565b6117d46117cf82611db6565b611eb3565b82525050565b6117e381611dc8565b82525050565b6117f281611dd4565b82525050565b61180181611dde565b82525050565b6000611814602383611d4f565b915061181f82611f8c565b604082019050919050565b6000611837602683611d4f565b915061184282611fdb565b604082019050919050565b600061185a601983611d4f565b91506118658261202a565b602082019050919050565b600061187d601783611d4f565b915061188882612053565b602082019050919050565b60006118a0601a83611d4f565b91506118ab8261207c565b602082019050919050565b60006118c3601783611d4f565b91506118ce826120a5565b602082019050919050565b60006118e6602083611d4f565b91506118f1826120ce565b602082019050919050565b6000611909601583611d4f565b9150611914826120f7565b602082019050919050565b600061192c601583611d4f565b915061193782612120565b602082019050919050565b600061194f601c83611d4f565b915061195a82612149565b602082019050919050565b6000611972601b83611d4f565b915061197d82612172565b602082019050919050565b61199181611e2a565b82525050565b6119a86119a382611e2a565b611ed7565b82525050565b6119b781611e34565b82525050565b60006119c982866117c3565b6014820191506119d982856117c3565b6014820191506119e98284611997565b602082019150819050949350505050565b6000602082019050611a0f60008301846117b4565b92915050565b6000606082019050611a2a60008301866117b4565b611a3760208301856117b4565b611a446040830184611988565b949350505050565b600061010082019050611a62600083018b6117b4565b611a6f602083018a611988565b611a7c6040830189611988565b611a896060830188611988565b611a966080830187611988565b611aa360a08301866117b4565b611ab060c08301856117b4565b611abd60e08301846119ae565b9998505050505050505050565b6000602082019050611adf60008301846117da565b92915050565b6000602082019050611afa60008301846117e9565b92915050565b600061010082019050611b16600083018b6117e9565b611b23602083018a6117e9565b611b3060408301896117e9565b611b3d60608301886117e9565b611b4a6080830187611988565b611b5760a0830186611988565b611b6460c0830185611988565b611b7160e0830184611988565b9998505050505050505050565b6000602082019050611b9360008301846117f8565b92915050565b60006020820190508181036000830152611bb281611807565b9050919050565b60006020820190508181036000830152611bd28161182a565b9050919050565b60006020820190508181036000830152611bf28161184d565b9050919050565b60006020820190508181036000830152611c1281611870565b9050919050565b60006020820190508181036000830152611c3281611893565b9050919050565b60006020820190508181036000830152611c52816118b6565b9050919050565b60006020820190508181036000830152611c72816118d9565b9050919050565b60006020820190508181036000830152611c92816118fc565b9050919050565b60006020820190508181036000830152611cb28161191f565b9050919050565b60006020820190508181036000830152611cd281611942565b9050919050565b60006020820190508181036000830152611cf281611965565b9050919050565b6000611d03611d14565b9050611d0f8282611e82565b919050565b6000604051905090565b600067ffffffffffffffff821115611d3957611d38611f3f565b5b611d4282611f6e565b9050602081019050919050565b600082825260208201905092915050565b6000611d6b82611e2a565b9150611d7683611e2a565b9250827fffffffffffffffffffffffffffffffffffffffffffffffffffffffffffffffff03821115611dab57611daa611ee1565b5b828201905092915050565b6000611dc182611e0a565b9050919050565b60008115159050919050565b6000819050919050565b60007fffffffff0000000000000000000000000000000000000000000000000000000082169050919050565b600073ffffffffffffffffffffffffffffffffffffffff82169050919050565b6000819050919050565b600060ff82169050919050565b82818337600083830152505050565b60006002820490506001821680611e6857607f821691505b60208210811415611e7c57611e7b611f10565b5b50919050565b611e8b82611f6e565b810181811067ffffffffffffffff82111715611eaa57611ea9611f3f565b5b80604052505050565b6000611ebe82611ec5565b9050919050565b6000611ed082611f7f565b9050919050565b6000819050919050565b7f4e487b7100000000000000000000000000000000000000000000000000000000600052601160045260246000fd5b7f4e487b7100000000000000000000000000000000000000000000000000000000600052602260045260246000fd5b7f4e487b7100000000000000000000000000000000000000000000000000000000600052604160045260246000fd5b6000601f19601f8301169050919050565b60008160601b9050919050565b7f74696d656c6f636b2074696d65206d75737420626520696e207468652066757460008201527f7572650000000000000000000000000000000000000000000000000000000000602082015250565b7f4f776e61626c653a206e6577206f776e657220697320746865207a65726f206160008201527f6464726573730000000000000000000000000000000000000000000000000000602082015250565b7f636f6e7472616374496420646f6573206e6f7420657869737400000000000000600082015250565b7f6d7573742062652073746174655f626f6246756e646564000000000000000000600082015250565b7f72656c6561736554696c6c206e6f742079657420706173736564000000000000600082015250565b7f436f6e747261637420616c726561647920657869737473000000000000000000600082015250565b7f4f776e61626c653a2063616c6c6572206973206e6f7420746865206f776e6572600082015250565b7f6d7573742062652073746174655f637265617465640000000000000000000000600082015250565b7f746f646f3a206e6f7420696d706c656d656e7465640000000000000000000000600082015250565b7f686173686c6f636b206861736820646f6573206e6f74206d6174636800000000600082015250565b7f6d7573742062652073746174655f6d6f766564546f457363726f770000000000600082015250565b6121a481611db6565b81146121af57600080fd5b50565b6121bb81611dd4565b81146121c657600080fd5b50565b6121d281611e2a565b81146121dd57600080fd5b5056fea264697066735822122004a20c3c127085093e88d9b394610f16467cfc0826f19ead6919a98bb56393d464736f6c63430008040033",
  "linkReferences": {},
  "deployedLinkReferences": {}
}