{
  "_format": "hh-sol-artifact-1",
  "contractName": "AssetSide",
  "sourceName": "contracts/assetSide.sol",
  "abi": [
    {
      "anonymous": false,
      "inputs": [
        {
          "indexed": true,
          "internalType": "address",
          "name": "alexWallet",
          "type": "address"
        },
        {
          "indexed": true,
          "internalType": "address",
          "name": "asset",
          "type": "address"
        },
        {
          "indexed": true,
          "internalType": "uint256",
          "name": "status",
          "type": "uint256"
        },
        {
          "indexed": false,
          "internalType": "bytes32",
          "name": "contractId",
          "type": "bytes32"
        }
      ],
      "name": "LoanRequest",
      "type": "event"
    },
    {
      "anonymous": false,
      "inputs": [
        {
          "indexed": true,
          "internalType": "address",
          "name": "previousOwner",
          "type": "address"
        },
        {
          "indexed": true,
          "internalType": "address",
          "name": "newOwner",
          "type": "address"
        }
      ],
      "name": "OwnershipTransferred",
      "type": "event"
    },
    {
      "anonymous": false,
      "inputs": [],
      "name": "Received",
      "type": "event"
    },
    {
      "inputs": [
        {
          "internalType": "bytes32",
          "name": "_contractId",
          "type": "bytes32"
        },
        {
          "internalType": "bytes32",
          "name": "_preImage1",
          "type": "bytes32"
        }
      ],
      "name": "acceptLoan",
      "outputs": [],
      "stateMutability": "nonpayable",
      "type": "function"
    },
    {
      "inputs": [
        {
          "internalType": "address",
          "name": "_asset",
          "type": "address"
        },
        {
          "internalType": "uint256",
          "name": "_tokenId",
          "type": "uint256"
        },
        {
          "internalType": "address",
          "name": "_assetOwner",
          "type": "address"
        },
        {
          "internalType": "bytes32",
          "name": "_secret1Hash",
          "type": "bytes32"
        },
        {
          "internalType": "uint256",
          "name": "_reqTill",
          "type": "uint256"
        },
        {
          "internalType": "uint256",
          "name": "_acceptTill",
          "type": "uint256"
        },
        {
          "internalType": "uint256",
          "name": "_lockedTill",
          "type": "uint256"
        },
        {
          "internalType": "uint256",
          "name": "_releaseTill",
          "type": "uint256"
        }
      ],
      "name": "askForLoan",
      "outputs": [],
      "stateMutability": "nonpayable",
      "type": "function"
    },
    {
      "inputs": [
        {
          "internalType": "address",
          "name": "_alexWallet",
          "type": "address"
        },
        {
          "internalType": "address",
          "name": "_asset",
          "type": "address"
        },
        {
          "internalType": "uint256",
          "name": "_tokenId",
          "type": "uint256"
        }
      ],
      "name": "computeContractId",
      "outputs": [
        {
          "internalType": "bytes32",
          "name": "",
          "type": "bytes32"
        }
      ],
      "stateMutability": "pure",
      "type": "function"
    },
    {
      "inputs": [
        {
          "internalType": "bytes32",
          "name": "_contractId",
          "type": "bytes32"
        }
      ],
      "name": "getContract1",
      "outputs": [
        {
          "internalType": "bytes32",
          "name": "secret1Hash",
          "type": "bytes32"
        },
        {
          "internalType": "bytes32",
          "name": "secret2Hash",
          "type": "bytes32"
        },
        {
          "internalType": "bytes32",
          "name": "preimage1",
          "type": "bytes32"
        },
        {
          "internalType": "bytes32",
          "name": "preimage2",
          "type": "bytes32"
        },
        {
          "internalType": "address",
          "name": "assetContract",
          "type": "address"
        },
        {
          "internalType": "uint256",
          "name": "tokenId",
          "type": "uint256"
        },
        {
          "internalType": "uint256",
          "name": "loanAmount",
          "type": "uint256"
        },
        {
          "internalType": "uint256",
          "name": "loanInterest",
          "type": "uint256"
        },
        {
          "internalType": "uint256",
          "name": "lenderDeposit",
          "type": "uint256"
        },
        {
          "internalType": "address",
          "name": "bobsWalet",
          "type": "address"
        },
        {
          "internalType": "address",
          "name": "alexWallet",
          "type": "address"
        },
        {
          "internalType": "uint8",
          "name": "status",
          "type": "uint8"
        }
      ],
      "stateMutability": "view",
      "type": "function"
    },
    {
      "inputs": [
        {
          "internalType": "bytes32",
          "name": "_contractId",
          "type": "bytes32"
        }
      ],
      "name": "getContract2",
      "outputs": [
        {
          "internalType": "uint256",
          "name": "reqTill",
          "type": "uint256"
        },
        {
          "internalType": "uint256",
          "name": "acceptTill",
          "type": "uint256"
        },
        {
          "internalType": "uint256",
          "name": "lockedTill",
          "type": "uint256"
        },
        {
          "internalType": "uint256",
          "name": "releaseTill",
          "type": "uint256"
        }
      ],
      "stateMutability": "view",
      "type": "function"
    },
    {
      "inputs": [
        {
          "internalType": "bytes32",
          "name": "_contractId",
          "type": "bytes32"
        },
        {
          "internalType": "bytes32",
          "name": "_secret2Hash",
          "type": "bytes32"
        }
      ],
      "name": "giveLoan",
      "outputs": [],
      "stateMutability": "nonpayable",
      "type": "function"
    },
    {
      "inputs": [
        {
          "internalType": "bytes32",
          "name": "_contractId",
          "type": "bytes32"
        },
        {
          "internalType": "bytes32",
          "name": "_preImage2",
          "type": "bytes32"
        }
      ],
      "name": "loanDefault",
      "outputs": [
        {
          "internalType": "bool",
          "name": "",
          "type": "bool"
        }
      ],
      "stateMutability": "nonpayable",
      "type": "function"
    },
    {
      "inputs": [],
      "name": "noTakersForLoan",
      "outputs": [],
      "stateMutability": "pure",
      "type": "function"
    },
    {
      "inputs": [
        {
          "internalType": "address",
          "name": "_operator",
          "type": "address"
        },
        {
          "internalType": "address",
          "name": "_from",
          "type": "address"
        },
        {
          "internalType": "uint256",
          "name": "_tokenId",
          "type": "uint256"
        },
        {
          "internalType": "bytes",
          "name": "_data",
          "type": "bytes"
        }
      ],
      "name": "onERC721Received",
      "outputs": [
        {
          "internalType": "bytes4",
          "name": "",
          "type": "bytes4"
        }
      ],
      "stateMutability": "nonpayable",
      "type": "function"
    },
    {
      "inputs": [],
      "name": "owner",
      "outputs": [
        {
          "internalType": "address",
          "name": "",
          "type": "address"
        }
      ],
      "stateMutability": "view",
      "type": "function"
    },
    {
      "inputs": [
        {
          "internalType": "bytes32",
          "name": "_contractId",
          "type": "bytes32"
        },
        {
          "internalType": "bytes32",
          "name": "_preImage2",
          "type": "bytes32"
        }
      ],
      "name": "releaseCollatoral",
      "outputs": [],
      "stateMutability": "nonpayable",
      "type": "function"
    },
    {
      "inputs": [],
      "name": "renounceOwnership",
      "outputs": [],
      "stateMutability": "nonpayable",
      "type": "function"
    },
    {
      "inputs": [
        {
          "internalType": "address",
          "name": "newOwner",
          "type": "address"
        }
      ],
      "name": "transferOwnership",
      "outputs": [],
      "stateMutability": "nonpayable",
      "type": "function"
    }
  ],
  "bytecode": "0x608060405234801561001057600080fd5b5061002d61002261003260201b60201c565b61003a60201b60201c565b6100fe565b600033905090565b60008060009054906101000a900473ffffffffffffffffffffffffffffffffffffffff169050816000806101000a81548173ffffffffffffffffffffffffffffffffffffffff021916908373ffffffffffffffffffffffffffffffffffffffff1602179055508173ffffffffffffffffffffffffffffffffffffffff168173ffffffffffffffffffffffffffffffffffffffff167f8be0079c531659141344cd1fd0a4f28419497f9722a3daafe3b4186f6b6457e060405160405180910390a35050565b611e308061010d6000396000f3fe608060405234801561001057600080fd5b50600436106100cf5760003560e01c80639ea37a3d1161008c578063c57ca2e611610066578063c57ca2e61461020c578063e1f270bb14610228578063f2fde38b14610244578063fa868db114610260576100cf565b80639ea37a3d14610185578063ad5f28f2146101c0578063bb5f7594146101dc576100cf565b8063150b7a02146100d4578063715018a61461010457806374e34b831461010e578063773e771714610118578063849af09a146101345780638da5cb5b14610167575b600080fd5b6100ee60048036038101906100e991906113f0565b610290565b6040516100fb919061190f565b60405180910390f35b61010c6102d1565b005b610116610359565b005b610132600480360381019061012d919061154b565b61039c565b005b61014e60048036038101906101499190611522565b61054c565b60405161015e9493929190611a8a565b60405180910390f35b61016f6105b6565b60405161017c91906117cd565b60405180910390f35b61019f600480360381019061019a9190611522565b6105df565b6040516101b79c9b9a99989796959493929190611855565b60405180910390f35b6101da60048036038101906101d5919061154b565b610736565b005b6101f660048036038101906101f1919061154b565b610867565b604051610203919061181f565b60405180910390f35b61022660048036038101906102219190611470565b610a65565b005b610242600480360381019061023d919061154b565b610f0f565b005b61025e60048036038101906102599190611378565b611004565b005b61027a600480360381019061027591906113a1565b6110fc565b604051610287919061183a565b60405180910390f35b60007f544c765b33ca411cce832250371569244f765a17fcd217832be093f0fd5fa45b60405160405180910390a163150b7a0260e01b905095945050505050565b6102d9611112565b73ffffffffffffffffffffffffffffffffffffffff166102f76105b6565b73ffffffffffffffffffffffffffffffffffffffff161461034d576040517f08c379a0000000000000000000000000000000000000000000000000000000008152600401610344906119ea565b60405180910390fd5b610357600061111a565b565b600061039a576040517f08c379a000000000000000000000000000000000000000000000000000000000815260040161039190611a2a565b60405180910390fd5b565b816103a6816111de565b6103e5576040517f08c379a00000000000000000000000000000000000000000000000000000000081526004016103dc9061196a565b60405180910390fd5b6000600160008581526020019081526020016000209050600260ff1681600a0160149054906101000a900460ff1660ff1614610456576040517f08c379a000000000000000000000000000000000000000000000000000000000815260040161044d90611a6a565b60405180910390fd5b61046481600101548461124d565b828160030181905550600781600a0160146101000a81548160ff021916908360ff1602179055508060040160009054906101000a900473ffffffffffffffffffffffffffffffffffffffff1673ffffffffffffffffffffffffffffffffffffffff166342842e0e3083600a0160009054906101000a900473ffffffffffffffffffffffffffffffffffffffff1684600501546040518463ffffffff1660e01b8152600401610514939291906117e8565b600060405180830381600087803b15801561052e57600080fd5b505af1158015610542573d6000803e3d6000fd5b5050505050505050565b6000806000806000151561055f866111de565b1515141561057a5760008060008093509350935093506105af565b600060016000878152602001908152602001600020905080600b015481600c015482600d015483600e01549450945094509450505b9193509193565b60008060009054906101000a900473ffffffffffffffffffffffffffffffffffffffff16905090565b600080600080600080600080600080600080600015156105fe8e6111de565b1515141561064d576000806000806000806000806000806000808b60001b9b508a60001b9a508960001b99508860001b98509b509b509b509b509b509b509b509b509b509b509b509b50610727565b6000600160008f8152602001908152602001600020905080600001548160010154826002015483600301548460040160009054906101000a900473ffffffffffffffffffffffffffffffffffffffff1685600501548660060154876007015488600801548960090160009054906101000a900473ffffffffffffffffffffffffffffffffffffffff168a600a0160009054906101000a900473ffffffffffffffffffffffffffffffffffffffff168b600a0160149054906101000a900460ff169c509c509c509c509c509c509c509c509c509c509c509c50505b91939597999b5091939597999b565b81610740816111de565b61077f576040517f08c379a00000000000000000000000000000000000000000000000000000000081526004016107769061196a565b60405180910390fd5b6000600160008581526020019081526020016000209050600060ff1681600a0160149054906101000a900460ff1660ff16146107f0576040517f08c379a00000000000000000000000000000000000000000000000000000000081526004016107e790611a0a565b60405180910390fd5b828160010181905550610801611112565b8160090160006101000a81548173ffffffffffffffffffffffffffffffffffffffff021916908373ffffffffffffffffffffffffffffffffffffffff160217905550600181600a0160146101000a81548160ff021916908360ff16021790555050505050565b600082610873816111de565b6108b2576040517f08c379a00000000000000000000000000000000000000000000000000000000081526004016108a99061196a565b60405180910390fd5b6000600160008681526020019081526020016000209050600260ff1681600a0160149054906101000a900460ff1660ff1614610923576040517f08c379a000000000000000000000000000000000000000000000000000000000815260040161091a90611a6a565b60405180910390fd5b4281600e015410610969576040517f08c379a0000000000000000000000000000000000000000000000000000000008152600401610960906119aa565b60405180910390fd5b61097781600101548561124d565b838160030181905550600681600a0160146101000a81548160ff021916908360ff1602179055508060040160009054906101000a900473ffffffffffffffffffffffffffffffffffffffff1673ffffffffffffffffffffffffffffffffffffffff166342842e0e308360090160009054906101000a900473ffffffffffffffffffffffffffffffffffffffff1684600501546040518463ffffffff1660e01b8152600401610a27939291906117e8565b600060405180830381600087803b158015610a4157600080fd5b505af1158015610a55573d6000803e3d6000fd5b5050505060019250505092915050565b83428111610aa8576040517f08c379a0000000000000000000000000000000000000000000000000000000008152600401610a9f9061192a565b60405180910390fd5b83428111610aeb576040517f08c379a0000000000000000000000000000000000000000000000000000000008152600401610ae29061192a565b60405180910390fd5b83428111610b2e576040517f08c379a0000000000000000000000000000000000000000000000000000000008152600401610b259061192a565b60405180910390fd5b83428111610b71576040517f08c379a0000000000000000000000000000000000000000000000000000000008152600401610b689061192a565b60405180910390fd5b6000610b85610b7e611112565b8e8e6112b9565b9050610b90816111de565b15610bd0576040517f08c379a0000000000000000000000000000000000000000000000000000000008152600401610bc7906119ca565b60405180910390fd5b6040518061020001604052808b81526020016000801b81526020016000801b81526020016000801b81526020018e73ffffffffffffffffffffffffffffffffffffffff1681526020018d8152602001600081526020016000815260200160008152602001600073ffffffffffffffffffffffffffffffffffffffff168152602001610c59611112565b73ffffffffffffffffffffffffffffffffffffffff168152602001600060ff1681526020018a815260200189815260200188815260200187815250600160008381526020019081526020016000206000820151816000015560208201518160010155604082015181600201556060820151816003015560808201518160040160006101000a81548173ffffffffffffffffffffffffffffffffffffffff021916908373ffffffffffffffffffffffffffffffffffffffff16021790555060a0820151816005015560c0820151816006015560e0820151816007015561010082015181600801556101208201518160090160006101000a81548173ffffffffffffffffffffffffffffffffffffffff021916908373ffffffffffffffffffffffffffffffffffffffff16021790555061014082015181600a0160006101000a81548173ffffffffffffffffffffffffffffffffffffffff021916908373ffffffffffffffffffffffffffffffffffffffff16021790555061016082015181600a0160146101000a81548160ff021916908360ff16021790555061018082015181600b01556101a082015181600c01556101c082015181600d01556101e082015181600e01559050508c73ffffffffffffffffffffffffffffffffffffffff166342842e0e8c308f6040518463ffffffff1660e01b8152600401610e5d939291906117e8565b600060405180830381600087803b158015610e7757600080fd5b505af1158015610e8b573d6000803e3d6000fd5b50505050600060ff168d73ffffffffffffffffffffffffffffffffffffffff16610eb3611112565b73ffffffffffffffffffffffffffffffffffffffff167f1661d573f00649ebdcedb1d20acda26f1a4621a22b3539f3ae4338dd7d08fdbd84604051610ef8919061183a565b60405180910390a450505050505050505050505050565b81610f19816111de565b610f58576040517f08c379a0000000000000000000000000000000000000000000000000000000008152600401610f4f9061196a565b60405180910390fd5b6000600160008581526020019081526020016000209050600160ff1681600a0160149054906101000a900460ff1660ff1614610fc9576040517f08c379a0000000000000000000000000000000000000000000000000000000008152600401610fc09061198a565b60405180910390fd5b610fd781600001548461124d565b828160020181905550600281600a0160146101000a81548160ff021916908360ff16021790555050505050565b61100c611112565b73ffffffffffffffffffffffffffffffffffffffff1661102a6105b6565b73ffffffffffffffffffffffffffffffffffffffff1614611080576040517f08c379a0000000000000000000000000000000000000000000000000000000008152600401611077906119ea565b60405180910390fd5b600073ffffffffffffffffffffffffffffffffffffffff168173ffffffffffffffffffffffffffffffffffffffff1614156110f0576040517f08c379a00000000000000000000000000000000000000000000000000000000081526004016110e79061194a565b60405180910390fd5b6110f98161111a565b50565b60006111098484846112b9565b90509392505050565b600033905090565b60008060009054906101000a900473ffffffffffffffffffffffffffffffffffffffff169050816000806101000a81548173ffffffffffffffffffffffffffffffffffffffff021916908373ffffffffffffffffffffffffffffffffffffffff1602179055508173ffffffffffffffffffffffffffffffffffffffff168173ffffffffffffffffffffffffffffffffffffffff167f8be0079c531659141344cd1fd0a4f28419497f9722a3daafe3b4186f6b6457e060405160405180910390a35050565b60008073ffffffffffffffffffffffffffffffffffffffff1660016000848152602001908152602001600020600a0160009054906101000a900473ffffffffffffffffffffffffffffffffffffffff1673ffffffffffffffffffffffffffffffffffffffff1614159050919050565b8060405160200161125e919061183a565b6040516020818303038152906040528051906020012082146112b5576040517f08c379a00000000000000000000000000000000000000000000000000000000081526004016112ac90611a4a565b60405180910390fd5b5050565b60008383836040516020016112d093929190611790565b6040516020818303038152906040528051906020012090509392505050565b6000813590506112fe81611db5565b92915050565b60008135905061131381611dcc565b92915050565b60008083601f84011261132b57600080fd5b8235905067ffffffffffffffff81111561134457600080fd5b60208301915083600182028301111561135c57600080fd5b9250929050565b60008135905061137281611de3565b92915050565b60006020828403121561138a57600080fd5b6000611398848285016112ef565b91505092915050565b6000806000606084860312156113b657600080fd5b60006113c4868287016112ef565b93505060206113d5868287016112ef565b92505060406113e686828701611363565b9150509250925092565b60008060008060006080868803121561140857600080fd5b6000611416888289016112ef565b9550506020611427888289016112ef565b945050604061143888828901611363565b935050606086013567ffffffffffffffff81111561145557600080fd5b61146188828901611319565b92509250509295509295909350565b600080600080600080600080610100898b03121561148d57600080fd5b600061149b8b828c016112ef565b98505060206114ac8b828c01611363565b97505060406114bd8b828c016112ef565b96505060606114ce8b828c01611304565b95505060806114df8b828c01611363565b94505060a06114f08b828c01611363565b93505060c06115018b828c01611363565b92505060e06115128b828c01611363565b9150509295985092959890939650565b60006020828403121561153457600080fd5b600061154284828501611304565b91505092915050565b6000806040838503121561155e57600080fd5b600061156c85828601611304565b925050602061157d85828601611304565b9150509250929050565b61159081611ae0565b82525050565b6115a76115a282611ae0565b611b6b565b82525050565b6115b681611af2565b82525050565b6115c581611afe565b82525050565b6115d481611b08565b82525050565b60006115e7602383611acf565b91506115f282611ba6565b604082019050919050565b600061160a602683611acf565b915061161582611bf5565b604082019050919050565b600061162d601983611acf565b915061163882611c44565b602082019050919050565b6000611650601783611acf565b915061165b82611c6d565b602082019050919050565b6000611673601a83611acf565b915061167e82611c96565b602082019050919050565b6000611696601783611acf565b91506116a182611cbf565b602082019050919050565b60006116b9602083611acf565b91506116c482611ce8565b602082019050919050565b60006116dc601583611acf565b91506116e782611d11565b602082019050919050565b60006116ff601583611acf565b915061170a82611d3a565b602082019050919050565b6000611722601c83611acf565b915061172d82611d63565b602082019050919050565b6000611745601b83611acf565b915061175082611d8c565b602082019050919050565b61176481611b54565b82525050565b61177b61177682611b54565b611b8f565b82525050565b61178a81611b5e565b82525050565b600061179c8286611596565b6014820191506117ac8285611596565b6014820191506117bc828461176a565b602082019150819050949350505050565b60006020820190506117e26000830184611587565b92915050565b60006060820190506117fd6000830186611587565b61180a6020830185611587565b611817604083018461175b565b949350505050565b600060208201905061183460008301846115ad565b92915050565b600060208201905061184f60008301846115bc565b92915050565b60006101808201905061186b600083018f6115bc565b611878602083018e6115bc565b611885604083018d6115bc565b611892606083018c6115bc565b61189f608083018b611587565b6118ac60a083018a61175b565b6118b960c083018961175b565b6118c660e083018861175b565b6118d461010083018761175b565b6118e2610120830186611587565b6118f0610140830185611587565b6118fe610160830184611781565b9d9c50505050505050505050505050565b600060208201905061192460008301846115cb565b92915050565b60006020820190508181036000830152611943816115da565b9050919050565b60006020820190508181036000830152611963816115fd565b9050919050565b6000602082019050818103600083015261198381611620565b9050919050565b600060208201905081810360008301526119a381611643565b9050919050565b600060208201905081810360008301526119c381611666565b9050919050565b600060208201905081810360008301526119e381611689565b9050919050565b60006020820190508181036000830152611a03816116ac565b9050919050565b60006020820190508181036000830152611a23816116cf565b9050919050565b60006020820190508181036000830152611a43816116f2565b9050919050565b60006020820190508181036000830152611a6381611715565b9050919050565b60006020820190508181036000830152611a8381611738565b9050919050565b6000608082019050611a9f600083018761175b565b611aac602083018661175b565b611ab9604083018561175b565b611ac6606083018461175b565b95945050505050565b600082825260208201905092915050565b6000611aeb82611b34565b9050919050565b60008115159050919050565b6000819050919050565b60007fffffffff0000000000000000000000000000000000000000000000000000000082169050919050565b600073ffffffffffffffffffffffffffffffffffffffff82169050919050565b6000819050919050565b600060ff82169050919050565b6000611b7682611b7d565b9050919050565b6000611b8882611b99565b9050919050565b6000819050919050565b60008160601b9050919050565b7f74696d656c6f636b2074696d65206d75737420626520696e207468652066757460008201527f7572650000000000000000000000000000000000000000000000000000000000602082015250565b7f4f776e61626c653a206e6577206f776e657220697320746865207a65726f206160008201527f6464726573730000000000000000000000000000000000000000000000000000602082015250565b7f636f6e7472616374496420646f6573206e6f7420657869737400000000000000600082015250565b7f6d7573742062652073746174655f626f6246756e646564000000000000000000600082015250565b7f72656c6561736554696c6c206e6f742079657420706173736564000000000000600082015250565b7f436f6e747261637420616c726561647920657869737473000000000000000000600082015250565b7f4f776e61626c653a2063616c6c6572206973206e6f7420746865206f776e6572600082015250565b7f6d7573742062652073746174655f637265617465640000000000000000000000600082015250565b7f746f646f3a206e6f7420696d706c656d656e7465640000000000000000000000600082015250565b7f686173686c6f636b206861736820646f6573206e6f74206d6174636800000000600082015250565b7f6d7573742062652073746174655f6d6f766564546f457363726f770000000000600082015250565b611dbe81611ae0565b8114611dc957600080fd5b50565b611dd581611afe565b8114611de057600080fd5b50565b611dec81611b54565b8114611df757600080fd5b5056fea2646970667358221220d24a925992c93f87159d3954592dcc04ec62c060094c91e25dd3294837f33e1f64736f6c63430008040033",
  "linkReferences": {},
  "deployedLinkReferences": {}
}