{
  "_format": "hh-sol-artifact-1",
  "contractName": "AssetFaucet",
  "sourceName": "contracts/assetFaucet.sol",
  "abi": [
    {
      "inputs": [],
      "stateMutability": "nonpayable",
      "type": "constructor"
    },
    {
      "anonymous": false,
      "inputs": [
        {
          "indexed": true,
          "internalType": "address",
          "name": "owner",
          "type": "address"
        },
        {
          "indexed": true,
          "internalType": "address",
          "name": "approved",
          "type": "address"
        },
        {
          "indexed": true,
          "internalType": "uint256",
          "name": "tokenId",
          "type": "uint256"
        }
      ],
      "name": "Approval",
      "type": "event"
    },
    {
      "anonymous": false,
      "inputs": [
        {
          "indexed": true,
          "internalType": "address",
          "name": "owner",
          "type": "address"
        },
        {
          "indexed": true,
          "internalType": "address",
          "name": "operator",
          "type": "address"
        },
        {
          "indexed": false,
          "internalType": "bool",
          "name": "approved",
          "type": "bool"
        }
      ],
      "name": "ApprovalForAll",
      "type": "event"
    },
    {
      "anonymous": false,
      "inputs": [
        {
          "indexed": true,
          "internalType": "address",
          "name": "from",
          "type": "address"
        },
        {
          "indexed": true,
          "internalType": "address",
          "name": "to",
          "type": "address"
        },
        {
          "indexed": true,
          "internalType": "uint256",
          "name": "tokenId",
          "type": "uint256"
        }
      ],
      "name": "Transfer",
      "type": "event"
    },
    {
      "inputs": [
        {
          "internalType": "address",
          "name": "to",
          "type": "address"
        },
        {
          "internalType": "uint256",
          "name": "tokenId",
          "type": "uint256"
        }
      ],
      "name": "approve",
      "outputs": [],
      "stateMutability": "nonpayable",
      "type": "function"
    },
    {
      "inputs": [
        {
          "internalType": "address",
          "name": "owner",
          "type": "address"
        }
      ],
      "name": "balanceOf",
      "outputs": [
        {
          "internalType": "uint256",
          "name": "",
          "type": "uint256"
        }
      ],
      "stateMutability": "view",
      "type": "function"
    },
    {
      "inputs": [
        {
          "internalType": "uint256",
          "name": "tokenId",
          "type": "uint256"
        }
      ],
      "name": "getApproved",
      "outputs": [
        {
          "internalType": "address",
          "name": "",
          "type": "address"
        }
      ],
      "stateMutability": "view",
      "type": "function"
    },
    {
      "inputs": [],
      "name": "giveMe",
      "outputs": [
        {
          "internalType": "uint256",
          "name": "",
          "type": "uint256"
        }
      ],
      "stateMutability": "nonpayable",
      "type": "function"
    },
    {
      "inputs": [
        {
          "internalType": "address",
          "name": "owner",
          "type": "address"
        },
        {
          "internalType": "address",
          "name": "operator",
          "type": "address"
        }
      ],
      "name": "isApprovedForAll",
      "outputs": [
        {
          "internalType": "bool",
          "name": "",
          "type": "bool"
        }
      ],
      "stateMutability": "view",
      "type": "function"
    },
    {
      "inputs": [],
      "name": "name",
      "outputs": [
        {
          "internalType": "string",
          "name": "",
          "type": "string"
        }
      ],
      "stateMutability": "view",
      "type": "function"
    },
    {
      "inputs": [
        {
          "internalType": "uint256",
          "name": "tokenId",
          "type": "uint256"
        }
      ],
      "name": "ownerOf",
      "outputs": [
        {
          "internalType": "address",
          "name": "",
          "type": "address"
        }
      ],
      "stateMutability": "view",
      "type": "function"
    },
    {
      "inputs": [
        {
          "internalType": "address",
          "name": "from",
          "type": "address"
        },
        {
          "internalType": "address",
          "name": "to",
          "type": "address"
        },
        {
          "internalType": "uint256",
          "name": "tokenId",
          "type": "uint256"
        }
      ],
      "name": "safeTransferFrom",
      "outputs": [],
      "stateMutability": "nonpayable",
      "type": "function"
    },
    {
      "inputs": [
        {
          "internalType": "address",
          "name": "from",
          "type": "address"
        },
        {
          "internalType": "address",
          "name": "to",
          "type": "address"
        },
        {
          "internalType": "uint256",
          "name": "tokenId",
          "type": "uint256"
        },
        {
          "internalType": "bytes",
          "name": "_data",
          "type": "bytes"
        }
      ],
      "name": "safeTransferFrom",
      "outputs": [],
      "stateMutability": "nonpayable",
      "type": "function"
    },
    {
      "inputs": [
        {
          "internalType": "address",
          "name": "operator",
          "type": "address"
        },
        {
          "internalType": "bool",
          "name": "approved",
          "type": "bool"
        }
      ],
      "name": "setApprovalForAll",
      "outputs": [],
      "stateMutability": "nonpayable",
      "type": "function"
    },
    {
      "inputs": [
        {
          "internalType": "bytes4",
          "name": "interfaceId",
          "type": "bytes4"
        }
      ],
      "name": "supportsInterface",
      "outputs": [
        {
          "internalType": "bool",
          "name": "",
          "type": "bool"
        }
      ],
      "stateMutability": "view",
      "type": "function"
    },
    {
      "inputs": [],
      "name": "symbol",
      "outputs": [
        {
          "internalType": "string",
          "name": "",
          "type": "string"
        }
      ],
      "stateMutability": "view",
      "type": "function"
    },
    {
      "inputs": [
        {
          "internalType": "uint256",
          "name": "index",
          "type": "uint256"
        }
      ],
      "name": "tokenByIndex",
      "outputs": [
        {
          "internalType": "uint256",
          "name": "",
          "type": "uint256"
        }
      ],
      "stateMutability": "view",
      "type": "function"
    },
    {
      "inputs": [
        {
          "internalType": "address",
          "name": "owner",
          "type": "address"
        },
        {
          "internalType": "uint256",
          "name": "index",
          "type": "uint256"
        }
      ],
      "name": "tokenOfOwnerByIndex",
      "outputs": [
        {
          "internalType": "uint256",
          "name": "",
          "type": "uint256"
        }
      ],
      "stateMutability": "view",
      "type": "function"
    },
    {
      "inputs": [
        {
          "internalType": "uint256",
          "name": "tokenId",
          "type": "uint256"
        }
      ],
      "name": "tokenURI",
      "outputs": [
        {
          "internalType": "string",
          "name": "",
          "type": "string"
        }
      ],
      "stateMutability": "view",
      "type": "function"
    },
    {
      "inputs": [],
      "name": "totalSupply",
      "outputs": [
        {
          "internalType": "uint256",
          "name": "",
          "type": "uint256"
        }
      ],
      "stateMutability": "view",
      "type": "function"
    },
    {
      "inputs": [
        {
          "internalType": "address",
          "name": "from",
          "type": "address"
        },
        {
          "internalType": "address",
          "name": "to",
          "type": "address"
        },
        {
          "internalType": "uint256",
          "name": "tokenId",
          "type": "uint256"
        }
      ],
      "name": "transferFrom",
      "outputs": [],
      "stateMutability": "nonpayable",
      "type": "function"
    }
  ],
  "bytecode": "0x60806040523480156200001157600080fd5b506040518060400160405280600c81526020017f434c5242582046617563657400000000000000000000000000000000000000008152506040518060400160405280600781526020017f434c5242582d6600000000000000000000000000000000000000000000000000815250816000908051906020019062000096929190620001cf565b508060019080519060200190620000af929190620001cf565b505050620000fd6040518060400160405280600d81526020017f636c7262782063726561746564000000000000000000000000000000000000008152506200010360201b62000be01760201c565b620003ac565b620001a3816040516024016200011a9190620002c0565b6040516020818303038152906040527f41304fac000000000000000000000000000000000000000000000000000000007bffffffffffffffffffffffffffffffffffffffffffffffffffffffff19166020820180517bffffffffffffffffffffffffffffffffffffffffffffffffffffffff8381831617835250505050620001a660201b60201c565b50565b60008151905060006a636f6e736f6c652e6c6f679050602083016000808483855afa5050505050565b828054620001dd9062000336565b90600052602060002090601f0160209004810192826200020157600085556200024d565b82601f106200021c57805160ff19168380011785556200024d565b828001600101855582156200024d579182015b828111156200024c5782518255916020019190600101906200022f565b5b5090506200025c919062000260565b5090565b5b808211156200027b57600081600090555060010162000261565b5090565b60006200028c82620002e4565b620002988185620002ef565b9350620002aa81856020860162000300565b620002b5816200039b565b840191505092915050565b60006020820190508181036000830152620002dc81846200027f565b905092915050565b600081519050919050565b600082825260208201905092915050565b60005b838110156200032057808201518184015260208101905062000303565b8381111562000330576000848401525b50505050565b600060028204905060018216806200034f57607f821691505b602082108114156200036657620003656200036c565b5b50919050565b7f4e487b7100000000000000000000000000000000000000000000000000000000600052602260045260246000fd5b6000601f19601f8301169050919050565b612fa980620003bc6000396000f3fe608060405234801561001057600080fd5b506004361061010b5760003560e01c80634921a91a116100a257806395d89b411161007157806395d89b41146102de578063a22cb465146102fc578063b88d4fde14610318578063c87b56dd14610334578063e985e9c5146103645761010b565b80634921a91a146102305780634f6ccce71461024e5780636352211e1461027e57806370a08231146102ae5761010b565b806318160ddd116100de57806318160ddd146101aa57806323b872dd146101c85780632f745c59146101e457806342842e0e146102145761010b565b806301ffc9a71461011057806306fdde0314610140578063081812fc1461015e578063095ea7b31461018e575b600080fd5b61012a60048036038101906101259190612087565b610394565b604051610137919061248d565b60405180910390f35b61014861040e565b60405161015591906124a8565b60405180910390f35b610178600480360381019061017391906120d9565b6104a0565b6040516101859190612426565b60405180910390f35b6101a860048036038101906101a3919061204b565b610525565b005b6101b261063d565b6040516101bf91906126ca565b60405180910390f35b6101e260048036038101906101dd9190611f45565b61064a565b005b6101fe60048036038101906101f9919061204b565b6106aa565b60405161020b91906126ca565b60405180910390f35b61022e60048036038101906102299190611f45565b61074f565b005b61023861076f565b60405161024591906126ca565b60405180910390f35b610268600480360381019061026391906120d9565b61079a565b60405161027591906126ca565b60405180910390f35b610298600480360381019061029391906120d9565b610831565b6040516102a59190612426565b60405180910390f35b6102c860048036038101906102c39190611ee0565b6108e3565b6040516102d591906126ca565b60405180910390f35b6102e661099b565b6040516102f391906124a8565b60405180910390f35b6103166004803603810190610311919061200f565b610a2d565b005b610332600480360381019061032d9190611f94565b610a43565b005b61034e600480360381019061034991906120d9565b610aa5565b60405161035b91906124a8565b60405180910390f35b61037e60048036038101906103799190611f09565b610b4c565b60405161038b919061248d565b60405180910390f35b60007f780e9d63000000000000000000000000000000000000000000000000000000007bffffffffffffffffffffffffffffffffffffffffffffffffffffffff1916827bffffffffffffffffffffffffffffffffffffffffffffffffffffffff19161480610407575061040682610c79565b5b9050919050565b60606000805461041d906128ef565b80601f0160208091040260200160405190810160405280929190818152602001828054610449906128ef565b80156104965780601f1061046b57610100808354040283529160200191610496565b820191906000526020600020905b81548152906001019060200180831161047957829003601f168201915b5050505050905090565b60006104ab82610d5b565b6104ea576040517f08c379a00000000000000000000000000000000000000000000000000000000081526004016104e19061260a565b60405180910390fd5b6004600083815260200190815260200160002060009054906101000a900473ffffffffffffffffffffffffffffffffffffffff169050919050565b600061053082610831565b90508073ffffffffffffffffffffffffffffffffffffffff168373ffffffffffffffffffffffffffffffffffffffff1614156105a1576040517f08c379a00000000000000000000000000000000000000000000000000000000081526004016105989061266a565b60405180910390fd5b8073ffffffffffffffffffffffffffffffffffffffff166105c0610dc7565b73ffffffffffffffffffffffffffffffffffffffff1614806105ef57506105ee816105e9610dc7565b610b4c565b5b61062e576040517f08c379a00000000000000000000000000000000000000000000000000000000081526004016106259061258a565b60405180910390fd5b6106388383610dcf565b505050565b6000600880549050905090565b61065b610655610dc7565b82610e88565b61069a576040517f08c379a00000000000000000000000000000000000000000000000000000000081526004016106919061268a565b60405180910390fd5b6106a5838383610f66565b505050565b60006106b5836108e3565b82106106f6576040517f08c379a00000000000000000000000000000000000000000000000000000000081526004016106ed906124ca565b60405180910390fd5b600660008473ffffffffffffffffffffffffffffffffffffffff1673ffffffffffffffffffffffffffffffffffffffff168152602001908152602001600020600083815260200190815260200160002054905092915050565b61076a83838360405180602001604052806000815250610a43565b505050565b600061077b600a6111c2565b6000610787600a6111d8565b905061079333826111e6565b8091505090565b60006107a461063d565b82106107e5576040517f08c379a00000000000000000000000000000000000000000000000000000000081526004016107dc906126aa565b60405180910390fd5b6008828154811061081f577f4e487b7100000000000000000000000000000000000000000000000000000000600052603260045260246000fd5b90600052602060002001549050919050565b6000806002600084815260200190815260200160002060009054906101000a900473ffffffffffffffffffffffffffffffffffffffff169050600073ffffffffffffffffffffffffffffffffffffffff168173ffffffffffffffffffffffffffffffffffffffff1614156108da576040517f08c379a00000000000000000000000000000000000000000000000000000000081526004016108d1906125ca565b60405180910390fd5b80915050919050565b60008073ffffffffffffffffffffffffffffffffffffffff168273ffffffffffffffffffffffffffffffffffffffff161415610954576040517f08c379a000000000000000000000000000000000000000000000000000000000815260040161094b906125aa565b60405180910390fd5b600360008373ffffffffffffffffffffffffffffffffffffffff1673ffffffffffffffffffffffffffffffffffffffff168152602001908152602001600020549050919050565b6060600180546109aa906128ef565b80601f01602080910402602001604051908101604052809291908181526020018280546109d6906128ef565b8015610a235780601f106109f857610100808354040283529160200191610a23565b820191906000526020600020905b815481529060010190602001808311610a0657829003601f168201915b5050505050905090565b610a3f610a38610dc7565b83836113b4565b5050565b610a54610a4e610dc7565b83610e88565b610a93576040517f08c379a0000000000000000000000000000000000000000000000000000000008152600401610a8a9061268a565b60405180910390fd5b610a9f84848484611521565b50505050565b6060610ab082610d5b565b610aef576040517f08c379a0000000000000000000000000000000000000000000000000000000008152600401610ae69061264a565b60405180910390fd5b6000610af961157d565b90506000815111610b195760405180602001604052806000815250610b44565b80610b2384611594565b604051602001610b34929190612402565b6040516020818303038152906040525b915050919050565b6000600560008473ffffffffffffffffffffffffffffffffffffffff1673ffffffffffffffffffffffffffffffffffffffff16815260200190815260200160002060008373ffffffffffffffffffffffffffffffffffffffff1673ffffffffffffffffffffffffffffffffffffffff16815260200190815260200160002060009054906101000a900460ff16905092915050565b610c7681604051602401610bf491906124a8565b6040516020818303038152906040527f41304fac000000000000000000000000000000000000000000000000000000007bffffffffffffffffffffffffffffffffffffffffffffffffffffffff19166020820180517bffffffffffffffffffffffffffffffffffffffffffffffffffffffff8381831617835250505050611741565b50565b60007f80ac58cd000000000000000000000000000000000000000000000000000000007bffffffffffffffffffffffffffffffffffffffffffffffffffffffff1916827bffffffffffffffffffffffffffffffffffffffffffffffffffffffff19161480610d4457507f5b5e139f000000000000000000000000000000000000000000000000000000007bffffffffffffffffffffffffffffffffffffffffffffffffffffffff1916827bffffffffffffffffffffffffffffffffffffffffffffffffffffffff1916145b80610d545750610d538261176a565b5b9050919050565b60008073ffffffffffffffffffffffffffffffffffffffff166002600084815260200190815260200160002060009054906101000a900473ffffffffffffffffffffffffffffffffffffffff1673ffffffffffffffffffffffffffffffffffffffff1614159050919050565b600033905090565b816004600083815260200190815260200160002060006101000a81548173ffffffffffffffffffffffffffffffffffffffff021916908373ffffffffffffffffffffffffffffffffffffffff160217905550808273ffffffffffffffffffffffffffffffffffffffff16610e4283610831565b73ffffffffffffffffffffffffffffffffffffffff167f8c5be1e5ebec7d5bd14f71427d1e84f3dd0314c0f7b2291e5b200ac8c7c3b92560405160405180910390a45050565b6000610e9382610d5b565b610ed2576040517f08c379a0000000000000000000000000000000000000000000000000000000008152600401610ec99061256a565b60405180910390fd5b6000610edd83610831565b90508073ffffffffffffffffffffffffffffffffffffffff168473ffffffffffffffffffffffffffffffffffffffff161480610f4c57508373ffffffffffffffffffffffffffffffffffffffff16610f34846104a0565b73ffffffffffffffffffffffffffffffffffffffff16145b80610f5d5750610f5c8185610b4c565b5b91505092915050565b8273ffffffffffffffffffffffffffffffffffffffff16610f8682610831565b73ffffffffffffffffffffffffffffffffffffffff1614610fdc576040517f08c379a0000000000000000000000000000000000000000000000000000000008152600401610fd39061262a565b60405180910390fd5b600073ffffffffffffffffffffffffffffffffffffffff168273ffffffffffffffffffffffffffffffffffffffff16141561104c576040517f08c379a00000000000000000000000000000000000000000000000000000000081526004016110439061252a565b60405180910390fd5b6110578383836117d4565b611062600082610dcf565b6001600360008573ffffffffffffffffffffffffffffffffffffffff1673ffffffffffffffffffffffffffffffffffffffff16815260200190815260200160002060008282546110b29190612805565b925050819055506001600360008473ffffffffffffffffffffffffffffffffffffffff1673ffffffffffffffffffffffffffffffffffffffff1681526020019081526020016000206000828254611109919061277e565b92505081905550816002600083815260200190815260200160002060006101000a81548173ffffffffffffffffffffffffffffffffffffffff021916908373ffffffffffffffffffffffffffffffffffffffff160217905550808273ffffffffffffffffffffffffffffffffffffffff168473ffffffffffffffffffffffffffffffffffffffff167fddf252ad1be2c89b69c2b068fc378daa952ba7f163c4a11628f55a4df523b3ef60405160405180910390a4505050565b6001816000016000828254019250508190555050565b600081600001549050919050565b600073ffffffffffffffffffffffffffffffffffffffff168273ffffffffffffffffffffffffffffffffffffffff161415611256576040517f08c379a000000000000000000000000000000000000000000000000000000000815260040161124d906125ea565b60405180910390fd5b61125f81610d5b565b1561129f576040517f08c379a00000000000000000000000000000000000000000000000000000000081526004016112969061250a565b60405180910390fd5b6112ab600083836117d4565b6001600360008473ffffffffffffffffffffffffffffffffffffffff1673ffffffffffffffffffffffffffffffffffffffff16815260200190815260200160002060008282546112fb919061277e565b92505081905550816002600083815260200190815260200160002060006101000a81548173ffffffffffffffffffffffffffffffffffffffff021916908373ffffffffffffffffffffffffffffffffffffffff160217905550808273ffffffffffffffffffffffffffffffffffffffff16600073ffffffffffffffffffffffffffffffffffffffff167fddf252ad1be2c89b69c2b068fc378daa952ba7f163c4a11628f55a4df523b3ef60405160405180910390a45050565b8173ffffffffffffffffffffffffffffffffffffffff168373ffffffffffffffffffffffffffffffffffffffff161415611423576040517f08c379a000000000000000000000000000000000000000000000000000000000815260040161141a9061254a565b60405180910390fd5b80600560008573ffffffffffffffffffffffffffffffffffffffff1673ffffffffffffffffffffffffffffffffffffffff16815260200190815260200160002060008473ffffffffffffffffffffffffffffffffffffffff1673ffffffffffffffffffffffffffffffffffffffff16815260200190815260200160002060006101000a81548160ff0219169083151502179055508173ffffffffffffffffffffffffffffffffffffffff168373ffffffffffffffffffffffffffffffffffffffff167f17307eab39ab6107e8899845ad3d59bd9653f200f220920489ca2b5937696c3183604051611514919061248d565b60405180910390a3505050565b61152c848484610f66565b611538848484846118e8565b611577576040517f08c379a000000000000000000000000000000000000000000000000000000000815260040161156e906124ea565b60405180910390fd5b50505050565b606060405180602001604052806000815250905090565b606060008214156115dc576040518060400160405280600181526020017f3000000000000000000000000000000000000000000000000000000000000000815250905061173c565b600082905060005b6000821461160e5780806115f790612952565b915050600a8261160791906127d4565b91506115e4565b60008167ffffffffffffffff811115611650577f4e487b7100000000000000000000000000000000000000000000000000000000600052604160045260246000fd5b6040519080825280601f01601f1916602001820160405280156116825781602001600182028036833780820191505090505b5090505b600085146117355760018261169b9190612805565b9150600a856116aa919061299b565b60306116b6919061277e565b60f81b8183815181106116f2577f4e487b7100000000000000000000000000000000000000000000000000000000600052603260045260246000fd5b60200101907effffffffffffffffffffffffffffffffffffffffffffffffffffffffffffff1916908160001a905350600a8561172e91906127d4565b9450611686565b8093505050505b919050565b60008151905060006a636f6e736f6c652e6c6f679050602083016000808483855afa5050505050565b60007f01ffc9a7000000000000000000000000000000000000000000000000000000007bffffffffffffffffffffffffffffffffffffffffffffffffffffffff1916827bffffffffffffffffffffffffffffffffffffffffffffffffffffffff1916149050919050565b6117df838383611a7f565b600073ffffffffffffffffffffffffffffffffffffffff168373ffffffffffffffffffffffffffffffffffffffff1614156118225761181d81611a84565b611861565b8173ffffffffffffffffffffffffffffffffffffffff168373ffffffffffffffffffffffffffffffffffffffff16146118605761185f8382611acd565b5b5b600073ffffffffffffffffffffffffffffffffffffffff168273ffffffffffffffffffffffffffffffffffffffff1614156118a45761189f81611c3a565b6118e3565b8273ffffffffffffffffffffffffffffffffffffffff168273ffffffffffffffffffffffffffffffffffffffff16146118e2576118e18282611d7d565b5b5b505050565b60006119098473ffffffffffffffffffffffffffffffffffffffff16611dfc565b15611a72578373ffffffffffffffffffffffffffffffffffffffff1663150b7a02611932610dc7565b8786866040518563ffffffff1660e01b81526004016119549493929190612441565b602060405180830381600087803b15801561196e57600080fd5b505af192505050801561199f57506040513d601f19601f8201168201806040525081019061199c91906120b0565b60015b611a22573d80600081146119cf576040519150601f19603f3d011682016040523d82523d6000602084013e6119d4565b606091505b50600081511415611a1a576040517f08c379a0000000000000000000000000000000000000000000000000000000008152600401611a11906124ea565b60405180910390fd5b805181602001fd5b63150b7a0260e01b7bffffffffffffffffffffffffffffffffffffffffffffffffffffffff1916817bffffffffffffffffffffffffffffffffffffffffffffffffffffffff191614915050611a77565b600190505b949350505050565b505050565b6008805490506009600083815260200190815260200160002081905550600881908060018154018082558091505060019003906000526020600020016000909190919091505550565b60006001611ada846108e3565b611ae49190612805565b9050600060076000848152602001908152602001600020549050818114611bc9576000600660008673ffffffffffffffffffffffffffffffffffffffff1673ffffffffffffffffffffffffffffffffffffffff168152602001908152602001600020600084815260200190815260200160002054905080600660008773ffffffffffffffffffffffffffffffffffffffff1673ffffffffffffffffffffffffffffffffffffffff168152602001908152602001600020600084815260200190815260200160002081905550816007600083815260200190815260200160002081905550505b6007600084815260200190815260200160002060009055600660008573ffffffffffffffffffffffffffffffffffffffff1673ffffffffffffffffffffffffffffffffffffffff16815260200190815260200160002060008381526020019081526020016000206000905550505050565b60006001600880549050611c4e9190612805565b9050600060096000848152602001908152602001600020549050600060088381548110611ca4577f4e487b7100000000000000000000000000000000000000000000000000000000600052603260045260246000fd5b906000526020600020015490508060088381548110611cec577f4e487b7100000000000000000000000000000000000000000000000000000000600052603260045260246000fd5b906000526020600020018190555081600960008381526020019081526020016000208190555060096000858152602001908152602001600020600090556008805480611d61577f4e487b7100000000000000000000000000000000000000000000000000000000600052603160045260246000fd5b6001900381819060005260206000200160009055905550505050565b6000611d88836108e3565b905081600660008573ffffffffffffffffffffffffffffffffffffffff1673ffffffffffffffffffffffffffffffffffffffff168152602001908152602001600020600083815260200190815260200160002081905550806007600084815260200190815260200160002081905550505050565b600080823b905060008111915050919050565b6000611e22611e1d8461270a565b6126e5565b905082815260208101848484011115611e3a57600080fd5b611e458482856128ad565b509392505050565b600081359050611e5c81612f17565b92915050565b600081359050611e7181612f2e565b92915050565b600081359050611e8681612f45565b92915050565b600081519050611e9b81612f45565b92915050565b600082601f830112611eb257600080fd5b8135611ec2848260208601611e0f565b91505092915050565b600081359050611eda81612f5c565b92915050565b600060208284031215611ef257600080fd5b6000611f0084828501611e4d565b91505092915050565b60008060408385031215611f1c57600080fd5b6000611f2a85828601611e4d565b9250506020611f3b85828601611e4d565b9150509250929050565b600080600060608486031215611f5a57600080fd5b6000611f6886828701611e4d565b9350506020611f7986828701611e4d565b9250506040611f8a86828701611ecb565b9150509250925092565b60008060008060808587031215611faa57600080fd5b6000611fb887828801611e4d565b9450506020611fc987828801611e4d565b9350506040611fda87828801611ecb565b925050606085013567ffffffffffffffff811115611ff757600080fd5b61200387828801611ea1565b91505092959194509250565b6000806040838503121561202257600080fd5b600061203085828601611e4d565b925050602061204185828601611e62565b9150509250929050565b6000806040838503121561205e57600080fd5b600061206c85828601611e4d565b925050602061207d85828601611ecb565b9150509250929050565b60006020828403121561209957600080fd5b60006120a784828501611e77565b91505092915050565b6000602082840312156120c257600080fd5b60006120d084828501611e8c565b91505092915050565b6000602082840312156120eb57600080fd5b60006120f984828501611ecb565b91505092915050565b61210b81612839565b82525050565b61211a8161284b565b82525050565b600061212b8261273b565b6121358185612751565b93506121458185602086016128bc565b61214e81612a88565b840191505092915050565b600061216482612746565b61216e8185612762565b935061217e8185602086016128bc565b61218781612a88565b840191505092915050565b600061219d82612746565b6121a78185612773565b93506121b78185602086016128bc565b80840191505092915050565b60006121d0602b83612762565b91506121db82612a99565b604082019050919050565b60006121f3603283612762565b91506121fe82612ae8565b604082019050919050565b6000612216601c83612762565b915061222182612b37565b602082019050919050565b6000612239602483612762565b915061224482612b60565b604082019050919050565b600061225c601983612762565b915061226782612baf565b602082019050919050565b600061227f602c83612762565b915061228a82612bd8565b604082019050919050565b60006122a2603883612762565b91506122ad82612c27565b604082019050919050565b60006122c5602a83612762565b91506122d082612c76565b604082019050919050565b60006122e8602983612762565b91506122f382612cc5565b604082019050919050565b600061230b602083612762565b915061231682612d14565b602082019050919050565b600061232e602c83612762565b915061233982612d3d565b604082019050919050565b6000612351602983612762565b915061235c82612d8c565b604082019050919050565b6000612374602f83612762565b915061237f82612ddb565b604082019050919050565b6000612397602183612762565b91506123a282612e2a565b604082019050919050565b60006123ba603183612762565b91506123c582612e79565b604082019050919050565b60006123dd602c83612762565b91506123e882612ec8565b604082019050919050565b6123fc816128a3565b82525050565b600061240e8285612192565b915061241a8284612192565b91508190509392505050565b600060208201905061243b6000830184612102565b92915050565b60006080820190506124566000830187612102565b6124636020830186612102565b61247060408301856123f3565b81810360608301526124828184612120565b905095945050505050565b60006020820190506124a26000830184612111565b92915050565b600060208201905081810360008301526124c28184612159565b905092915050565b600060208201905081810360008301526124e3816121c3565b9050919050565b60006020820190508181036000830152612503816121e6565b9050919050565b6000602082019050818103600083015261252381612209565b9050919050565b600060208201905081810360008301526125438161222c565b9050919050565b600060208201905081810360008301526125638161224f565b9050919050565b6000602082019050818103600083015261258381612272565b9050919050565b600060208201905081810360008301526125a381612295565b9050919050565b600060208201905081810360008301526125c3816122b8565b9050919050565b600060208201905081810360008301526125e3816122db565b9050919050565b60006020820190508181036000830152612603816122fe565b9050919050565b6000602082019050818103600083015261262381612321565b9050919050565b6000602082019050818103600083015261264381612344565b9050919050565b6000602082019050818103600083015261266381612367565b9050919050565b600060208201905081810360008301526126838161238a565b9050919050565b600060208201905081810360008301526126a3816123ad565b9050919050565b600060208201905081810360008301526126c3816123d0565b9050919050565b60006020820190506126df60008301846123f3565b92915050565b60006126ef612700565b90506126fb8282612921565b919050565b6000604051905090565b600067ffffffffffffffff82111561272557612724612a59565b5b61272e82612a88565b9050602081019050919050565b600081519050919050565b600081519050919050565b600082825260208201905092915050565b600082825260208201905092915050565b600081905092915050565b6000612789826128a3565b9150612794836128a3565b9250827fffffffffffffffffffffffffffffffffffffffffffffffffffffffffffffffff038211156127c9576127c86129cc565b5b828201905092915050565b60006127df826128a3565b91506127ea836128a3565b9250826127fa576127f96129fb565b5b828204905092915050565b6000612810826128a3565b915061281b836128a3565b92508282101561282e5761282d6129cc565b5b828203905092915050565b600061284482612883565b9050919050565b60008115159050919050565b60007fffffffff0000000000000000000000000000000000000000000000000000000082169050919050565b600073ffffffffffffffffffffffffffffffffffffffff82169050919050565b6000819050919050565b82818337600083830152505050565b60005b838110156128da5780820151818401526020810190506128bf565b838111156128e9576000848401525b50505050565b6000600282049050600182168061290757607f821691505b6020821081141561291b5761291a612a2a565b5b50919050565b61292a82612a88565b810181811067ffffffffffffffff8211171561294957612948612a59565b5b80604052505050565b600061295d826128a3565b91507fffffffffffffffffffffffffffffffffffffffffffffffffffffffffffffffff8214156129905761298f6129cc565b5b600182019050919050565b60006129a6826128a3565b91506129b1836128a3565b9250826129c1576129c06129fb565b5b828206905092915050565b7f4e487b7100000000000000000000000000000000000000000000000000000000600052601160045260246000fd5b7f4e487b7100000000000000000000000000000000000000000000000000000000600052601260045260246000fd5b7f4e487b7100000000000000000000000000000000000000000000000000000000600052602260045260246000fd5b7f4e487b7100000000000000000000000000000000000000000000000000000000600052604160045260246000fd5b6000601f19601f8301169050919050565b7f455243373231456e756d657261626c653a206f776e657220696e646578206f7560008201527f74206f6620626f756e6473000000000000000000000000000000000000000000602082015250565b7f4552433732313a207472616e7366657220746f206e6f6e20455243373231526560008201527f63656976657220696d706c656d656e7465720000000000000000000000000000602082015250565b7f4552433732313a20746f6b656e20616c7265616479206d696e74656400000000600082015250565b7f4552433732313a207472616e7366657220746f20746865207a65726f2061646460008201527f7265737300000000000000000000000000000000000000000000000000000000602082015250565b7f4552433732313a20617070726f766520746f2063616c6c657200000000000000600082015250565b7f4552433732313a206f70657261746f7220717565727920666f72206e6f6e657860008201527f697374656e7420746f6b656e0000000000000000000000000000000000000000602082015250565b7f4552433732313a20617070726f76652063616c6c6572206973206e6f74206f7760008201527f6e6572206e6f7220617070726f76656420666f7220616c6c0000000000000000602082015250565b7f4552433732313a2062616c616e636520717565727920666f7220746865207a6560008201527f726f206164647265737300000000000000000000000000000000000000000000602082015250565b7f4552433732313a206f776e657220717565727920666f72206e6f6e657869737460008201527f656e7420746f6b656e0000000000000000000000000000000000000000000000602082015250565b7f4552433732313a206d696e7420746f20746865207a65726f2061646472657373600082015250565b7f4552433732313a20617070726f76656420717565727920666f72206e6f6e657860008201527f697374656e7420746f6b656e0000000000000000000000000000000000000000602082015250565b7f4552433732313a207472616e73666572206f6620746f6b656e2074686174206960008201527f73206e6f74206f776e0000000000000000000000000000000000000000000000602082015250565b7f4552433732314d657461646174613a2055524920717565727920666f72206e6f60008201527f6e6578697374656e7420746f6b656e0000000000000000000000000000000000602082015250565b7f4552433732313a20617070726f76616c20746f2063757272656e74206f776e6560008201527f7200000000000000000000000000000000000000000000000000000000000000602082015250565b7f4552433732313a207472616e736665722063616c6c6572206973206e6f74206f60008201527f776e6572206e6f7220617070726f766564000000000000000000000000000000602082015250565b7f455243373231456e756d657261626c653a20676c6f62616c20696e646578206f60008201527f7574206f6620626f756e64730000000000000000000000000000000000000000602082015250565b612f2081612839565b8114612f2b57600080fd5b50565b612f378161284b565b8114612f4257600080fd5b50565b612f4e81612857565b8114612f5957600080fd5b50565b612f65816128a3565b8114612f7057600080fd5b5056fea2646970667358221220f5c7084bf133248d25333c0ae21641cfb1d17c0862daddceb4780d9d624b6ede64736f6c63430008040033",
  "linkReferences": {},
  "deployedLinkReferences": {}
}