{
  "_format": "hh-sol-artifact-1",
  "contractName": "CashSide",
  "sourceName": "contracts/cashSide.sol",
  "abi": [
    {
      "anonymous": false,
      "inputs": [
        {
          "indexed": true,
          "internalType": "address",
          "name": "alexWallet",
          "type": "address"
        },
        {
          "indexed": true,
          "internalType": "address",
          "name": "bobsWallet",
          "type": "address"
        },
        {
          "indexed": true,
          "internalType": "uint256",
          "name": "status",
          "type": "uint256"
        },
        {
          "indexed": false,
          "internalType": "bytes32",
          "name": "contractId",
          "type": "bytes32"
        }
      ],
      "name": "LoanGiven",
      "type": "event"
    },
    {
      "anonymous": false,
      "inputs": [
        {
          "indexed": true,
          "internalType": "address",
          "name": "previousOwner",
          "type": "address"
        },
        {
          "indexed": true,
          "internalType": "address",
          "name": "newOwner",
          "type": "address"
        }
      ],
      "name": "OwnershipTransferred",
      "type": "event"
    },
    {
      "inputs": [
        {
          "internalType": "bytes32",
          "name": "_contractId",
          "type": "bytes32"
        },
        {
          "internalType": "bytes32",
          "name": "_secret1Hash",
          "type": "bytes32"
        },
        {
          "internalType": "uint256",
          "name": "_loanAmount",
          "type": "uint256"
        },
        {
          "internalType": "uint256",
          "name": "_loanInterest",
          "type": "uint256"
        },
        {
          "internalType": "uint256",
          "name": "_lockedTill",
          "type": "uint256"
        }
      ],
      "name": "askForLoan",
      "outputs": [],
      "stateMutability": "nonpayable",
      "type": "function"
    },
    {
      "inputs": [
        {
          "internalType": "address",
          "name": "_alexWallet",
          "type": "address"
        },
        {
          "internalType": "address",
          "name": "_asset",
          "type": "address"
        },
        {
          "internalType": "uint256",
          "name": "_tokenId",
          "type": "uint256"
        }
      ],
      "name": "computeContractId",
      "outputs": [
        {
          "internalType": "bytes32",
          "name": "",
          "type": "bytes32"
        }
      ],
      "stateMutability": "pure",
      "type": "function"
    },
    {
      "inputs": [
        {
          "internalType": "bytes32",
          "name": "_contractId",
          "type": "bytes32"
        }
      ],
      "name": "getContract1",
      "outputs": [
        {
          "internalType": "address",
          "name": "assetContract",
          "type": "address"
        },
        {
          "internalType": "uint256",
          "name": "tokenId",
          "type": "uint256"
        },
        {
          "internalType": "uint256",
          "name": "loanAmount",
          "type": "uint256"
        },
        {
          "internalType": "uint256",
          "name": "loanInterest",
          "type": "uint256"
        },
        {
          "internalType": "uint256",
          "name": "lenderDeposit",
          "type": "uint256"
        },
        {
          "internalType": "address",
          "name": "bobsWalet",
          "type": "address"
        },
        {
          "internalType": "address",
          "name": "alexWallet",
          "type": "address"
        },
        {
          "internalType": "uint8",
          "name": "status",
          "type": "uint8"
        }
      ],
      "stateMutability": "view",
      "type": "function"
    },
    {
      "inputs": [
        {
          "internalType": "bytes32",
          "name": "_contractId",
          "type": "bytes32"
        }
      ],
      "name": "getContract2",
      "outputs": [
        {
          "internalType": "bytes32",
          "name": "secret1Hash",
          "type": "bytes32"
        },
        {
          "internalType": "bytes32",
          "name": "secret2Hash",
          "type": "bytes32"
        },
        {
          "internalType": "bytes32",
          "name": "preimage1",
          "type": "bytes32"
        },
        {
          "internalType": "bytes32",
          "name": "preimage2",
          "type": "bytes32"
        },
        {
          "internalType": "uint256",
          "name": "reqTill",
          "type": "uint256"
        },
        {
          "internalType": "uint256",
          "name": "acceptTill",
          "type": "uint256"
        },
        {
          "internalType": "uint256",
          "name": "lockedTill",
          "type": "uint256"
        },
        {
          "internalType": "uint256",
          "name": "releaseTill",
          "type": "uint256"
        }
      ],
      "stateMutability": "view",
      "type": "function"
    },
    {
      "inputs": [
        {
          "internalType": "bytes32",
          "name": "_contractId",
          "type": "bytes32"
        },
        {
          "internalType": "bytes32",
          "name": "_secret2Hash",
          "type": "bytes32"
        }
      ],
      "name": "giveLoan",
      "outputs": [],
      "stateMutability": "payable",
      "type": "function"
    },
    {
      "inputs": [],
      "name": "noTakersForLoan",
      "outputs": [],
      "stateMutability": "pure",
      "type": "function"
    },
    {
      "inputs": [],
      "name": "owner",
      "outputs": [
        {
          "internalType": "address",
          "name": "",
          "type": "address"
        }
      ],
      "stateMutability": "view",
      "type": "function"
    },
    {
      "inputs": [],
      "name": "renounceOwnership",
      "outputs": [],
      "stateMutability": "nonpayable",
      "type": "function"
    },
    {
      "inputs": [
        {
          "internalType": "address",
          "name": "newOwner",
          "type": "address"
        }
      ],
      "name": "transferOwnership",
      "outputs": [],
      "stateMutability": "nonpayable",
      "type": "function"
    }
  ],
  "bytecode": "0x608060405234801561001057600080fd5b5061002d61002261003260201b60201c565b61003a60201b60201c565b6100fe565b600033905090565b60008060009054906101000a900473ffffffffffffffffffffffffffffffffffffffff169050816000806101000a81548173ffffffffffffffffffffffffffffffffffffffff021916908373ffffffffffffffffffffffffffffffffffffffff1602179055508173ffffffffffffffffffffffffffffffffffffffff168173ffffffffffffffffffffffffffffffffffffffff167f8be0079c531659141344cd1fd0a4f28419497f9722a3daafe3b4186f6b6457e060405160405180910390a35050565b6117ae8061010d6000396000f3fe6080604052600436106100865760003560e01c80638da5cb5b116100595780638da5cb5b146101265780639ea37a3d14610151578063ad5f28f214610195578063f2fde38b146101b1578063fa868db1146101da57610086565b806305a702981461008b578063715018a6146100b457806374e34b83146100cb578063849af09a146100e2575b600080fd5b34801561009757600080fd5b506100b260048036038101906100ad9190610f46565b610217565b005b3480156100c057600080fd5b506100c96105ba565b005b3480156100d757600080fd5b506100e0610642565b005b3480156100ee57600080fd5b5061010960048036038101906101049190610ee1565b610685565b60405161011d989796959493929190611253565b60405180910390f35b34801561013257600080fd5b5061013b61073b565b604051610148919061119f565b60405180910390f35b34801561015d57600080fd5b5061017860048036038101906101739190610ee1565b610764565b60405161018c9897969594939291906111ba565b60405180910390f35b6101af60048036038101906101aa9190610f0a565b61086f565b005b3480156101bd57600080fd5b506101d860048036038101906101d39190610e69565b610ab8565b005b3480156101e657600080fd5b5061020160048036038101906101fc9190610e92565b610bb0565b60405161020e9190611238565b60405180910390f35b8042811161025a576040517f08c379a0000000000000000000000000000000000000000000000000000000008152600401610251906112d1565b60405180910390fd5b6000841161029d576040517f08c379a0000000000000000000000000000000000000000000000000000000008152600401610294906112f1565b60405180910390fd5b60008060006102ab85610bc6565b9250925092506102ba89610c16565b156102fa576040517f08c379a00000000000000000000000000000000000000000000000000000000081526004016102f190611351565b60405180910390fd5b6040518061024001604052806040518060200160405280600081525081526020016040518060200160405280600081525081526020018981526020016000801b81526020016000801b81526020016000801b8152602001600073ffffffffffffffffffffffffffffffffffffffff16815260200160008152602001888152602001878152602001888152602001600073ffffffffffffffffffffffffffffffffffffffff1681526020016103ac610c85565b73ffffffffffffffffffffffffffffffffffffffff168152602001600060ff16815260200184815260200183815260200186815260200182815250600160008b81526020019081526020016000206000820151816000019080519060200190610416929190610d87565b506020820151816001019080519060200190610433929190610d87565b5060408201518160020155606082015181600301556080820151816004015560a0820151816005015560c08201518160060160006101000a81548173ffffffffffffffffffffffffffffffffffffffff021916908373ffffffffffffffffffffffffffffffffffffffff16021790555060e082015181600701556101008201518160080155610120820151816009015561014082015181600a015561016082015181600b0160006101000a81548173ffffffffffffffffffffffffffffffffffffffff021916908373ffffffffffffffffffffffffffffffffffffffff16021790555061018082015181600c0160006101000a81548173ffffffffffffffffffffffffffffffffffffffff021916908373ffffffffffffffffffffffffffffffffffffffff1602179055506101a082015181600c0160146101000a81548160ff021916908360ff1602179055506101c082015181600d01556101e082015181600e015561020082015181600f01556102208201518160100155905050505050505050505050565b6105c2610c85565b73ffffffffffffffffffffffffffffffffffffffff166105e061073b565b73ffffffffffffffffffffffffffffffffffffffff1614610636576040517f08c379a000000000000000000000000000000000000000000000000000000000815260040161062d90611391565b60405180910390fd5b6106406000610c8d565b565b6000610683576040517f08c379a000000000000000000000000000000000000000000000000000000000815260040161067a906113d1565b60405180910390fd5b565b6000806000806000806000806000151561069e8a610c16565b151514156106df576000806000806000806000808760001b97508660001b96508560001b95508460001b945097509750975097509750975097509750610730565b6000600160008b81526020019081526020016000209050806002015481600301548260040154836005015484600d015485600e015486600f0154876010015498509850985098509850985098509850505b919395975091939597565b60008060009054906101000a900473ffffffffffffffffffffffffffffffffffffffff16905090565b6000806000806000806000806000151561077d8a610c16565b151514156107a65760008060008060008060008097509750975097509750975097509750610864565b6000600160008b815260200190815260200160002090508060060160009054906101000a900473ffffffffffffffffffffffffffffffffffffffff1681600701548260080154836009015484600a015485600b0160009054906101000a900473ffffffffffffffffffffffffffffffffffffffff1686600c0160009054906101000a900473ffffffffffffffffffffffffffffffffffffffff1687600c0160149054906101000a900460ff1698509850985098509850985098509850505b919395975091939597565b8161087981610c16565b6108b8576040517f08c379a00000000000000000000000000000000000000000000000000000000081526004016108af90611331565b60405180910390fd5b6000600160008581526020019081526020016000209050600060ff1681600c0160149054906101000a900460ff1660ff1614610929576040517f08c379a0000000000000000000000000000000000000000000000000000000008152600401610920906113b1565b60405180910390fd5b80600a0154816008015461093d9190611402565b34101561097f576040517f08c379a000000000000000000000000000000000000000000000000000000000815260040161097690611371565b60405180910390fd5b828160030181905550610990610c85565b81600b0160006101000a81548173ffffffffffffffffffffffffffffffffffffffff021916908373ffffffffffffffffffffffffffffffffffffffff160217905550600181600c0160146101000a81548160ff021916908360ff16021790555080600c0160149054906101000a900460ff1660ff1681600b0160009054906101000a900473ffffffffffffffffffffffffffffffffffffffff1673ffffffffffffffffffffffffffffffffffffffff1682600c0160009054906101000a900473ffffffffffffffffffffffffffffffffffffffff1673ffffffffffffffffffffffffffffffffffffffff167fe480dd6a21fc5c0bbacd9806b58b794052d1ee5d1a2f214822bbb4077dca192a87604051610aaa9190611238565b60405180910390a450505050565b610ac0610c85565b73ffffffffffffffffffffffffffffffffffffffff16610ade61073b565b73ffffffffffffffffffffffffffffffffffffffff1614610b34576040517f08c379a0000000000000000000000000000000000000000000000000000000008152600401610b2b90611391565b60405180910390fd5b600073ffffffffffffffffffffffffffffffffffffffff168173ffffffffffffffffffffffffffffffffffffffff161415610ba4576040517f08c379a0000000000000000000000000000000000000000000000000000000008152600401610b9b90611311565b60405180910390fd5b610bad81610c8d565b50565b6000610bbd848484610d51565b90509392505050565b6000806000806201518042610bdb9190611402565b905060006201518082610bee9190611402565b905060006201518087610c019190611402565b90508282829550955095505050509193909250565b60008073ffffffffffffffffffffffffffffffffffffffff1660016000848152602001908152602001600020600c0160009054906101000a900473ffffffffffffffffffffffffffffffffffffffff1673ffffffffffffffffffffffffffffffffffffffff1614159050919050565b600033905090565b60008060009054906101000a900473ffffffffffffffffffffffffffffffffffffffff169050816000806101000a81548173ffffffffffffffffffffffffffffffffffffffff021916908373ffffffffffffffffffffffffffffffffffffffff1602179055508173ffffffffffffffffffffffffffffffffffffffff168173ffffffffffffffffffffffffffffffffffffffff167f8be0079c531659141344cd1fd0a4f28419497f9722a3daafe3b4186f6b6457e060405160405180910390a35050565b6000838383604051602001610d6893929190611162565b6040516020818303038152906040528051906020012090509392505050565b828054610d93906114ab565b90600052602060002090601f016020900481019282610db55760008555610dfc565b82601f10610dce57805160ff1916838001178555610dfc565b82800160010185558215610dfc579182015b82811115610dfb578251825591602001919060010190610de0565b5b509050610e099190610e0d565b5090565b5b80821115610e26576000816000905550600101610e0e565b5090565b600081359050610e3981611733565b92915050565b600081359050610e4e8161174a565b92915050565b600081359050610e6381611761565b92915050565b600060208284031215610e7b57600080fd5b6000610e8984828501610e2a565b91505092915050565b600080600060608486031215610ea757600080fd5b6000610eb586828701610e2a565b9350506020610ec686828701610e2a565b9250506040610ed786828701610e54565b9150509250925092565b600060208284031215610ef357600080fd5b6000610f0184828501610e3f565b91505092915050565b60008060408385031215610f1d57600080fd5b6000610f2b85828601610e3f565b9250506020610f3c85828601610e3f565b9150509250929050565b600080600080600060a08688031215610f5e57600080fd5b6000610f6c88828901610e3f565b9550506020610f7d88828901610e3f565b9450506040610f8e88828901610e54565b9350506060610f9f88828901610e54565b9250506080610fb088828901610e54565b9150509295509295909350565b610fc681611458565b82525050565b610fdd610fd882611458565b6114dd565b82525050565b610fec8161146a565b82525050565b6000610fff6023836113f1565b915061100a82611576565b604082019050919050565b60006110226012836113f1565b915061102d826115c5565b602082019050919050565b60006110456026836113f1565b9150611050826115ee565b604082019050919050565b60006110686019836113f1565b91506110738261163d565b602082019050919050565b600061108b6017836113f1565b915061109682611666565b602082019050919050565b60006110ae6016836113f1565b91506110b98261168f565b602082019050919050565b60006110d16020836113f1565b91506110dc826116b8565b602082019050919050565b60006110f46015836113f1565b91506110ff826116e1565b602082019050919050565b60006111176015836113f1565b91506111228261170a565b602082019050919050565b61113681611494565b82525050565b61114d61114882611494565b611501565b82525050565b61115c8161149e565b82525050565b600061116e8286610fcc565b60148201915061117e8285610fcc565b60148201915061118e828461113c565b602082019150819050949350505050565b60006020820190506111b46000830184610fbd565b92915050565b6000610100820190506111d0600083018b610fbd565b6111dd602083018a61112d565b6111ea604083018961112d565b6111f7606083018861112d565b611204608083018761112d565b61121160a0830186610fbd565b61121e60c0830185610fbd565b61122b60e0830184611153565b9998505050505050505050565b600060208201905061124d6000830184610fe3565b92915050565b600061010082019050611269600083018b610fe3565b611276602083018a610fe3565b6112836040830189610fe3565b6112906060830188610fe3565b61129d608083018761112d565b6112aa60a083018661112d565b6112b760c083018561112d565b6112c460e083018461112d565b9998505050505050505050565b600060208201905081810360008301526112ea81610ff2565b9050919050565b6000602082019050818103600083015261130a81611015565b9050919050565b6000602082019050818103600083015261132a81611038565b9050919050565b6000602082019050818103600083015261134a8161105b565b9050919050565b6000602082019050818103600083015261136a8161107e565b9050919050565b6000602082019050818103600083015261138a816110a1565b9050919050565b600060208201905081810360008301526113aa816110c4565b9050919050565b600060208201905081810360008301526113ca816110e7565b9050919050565b600060208201905081810360008301526113ea8161110a565b9050919050565b600082825260208201905092915050565b600061140d82611494565b915061141883611494565b9250827fffffffffffffffffffffffffffffffffffffffffffffffffffffffffffffffff0382111561144d5761144c61150b565b5b828201905092915050565b600061146382611474565b9050919050565b6000819050919050565b600073ffffffffffffffffffffffffffffffffffffffff82169050919050565b6000819050919050565b600060ff82169050919050565b600060028204905060018216806114c357607f821691505b602082108114156114d7576114d661153a565b5b50919050565b60006114e8826114ef565b9050919050565b60006114fa82611569565b9050919050565b6000819050919050565b7f4e487b7100000000000000000000000000000000000000000000000000000000600052601160045260246000fd5b7f4e487b7100000000000000000000000000000000000000000000000000000000600052602260045260246000fd5b60008160601b9050919050565b7f74696d656c6f636b2074696d65206d75737420626520696e207468652066757460008201527f7572650000000000000000000000000000000000000000000000000000000000602082015250565b7f616d6f756e74206d757374206265203e20300000000000000000000000000000600082015250565b7f4f776e61626c653a206e6577206f776e657220697320746865207a65726f206160008201527f6464726573730000000000000000000000000000000000000000000000000000602082015250565b7f636f6e7472616374496420646f6573206e6f7420657869737400000000000000600082015250565b7f436f6e747261637420616c726561647920657869737473000000000000000000600082015250565b7f6e6f742074686520636f727265637420616d6f756e7400000000000000000000600082015250565b7f4f776e61626c653a2063616c6c6572206973206e6f7420746865206f776e6572600082015250565b7f6d7573742062652073746174655f637265617465640000000000000000000000600082015250565b7f746f646f3a206e6f7420696d706c656d656e7465640000000000000000000000600082015250565b61173c81611458565b811461174757600080fd5b50565b6117538161146a565b811461175e57600080fd5b50565b61176a81611494565b811461177557600080fd5b5056fea26469706673582212203283d6d44f9784028a945b7c021653bfdd375242d19a089baac0e1c3ef261cd464736f6c63430008040033",
  "linkReferences": {},
  "deployedLinkReferences": {}
}