{
  "_format": "hh-sol-artifact-1",
  "contractName": "CashSide",
  "sourceName": "contracts/cashSide.sol",
  "abi": [
    {
      "anonymous": false,
      "inputs": [
        {
          "indexed": true,
          "internalType": "address",
          "name": "alexWallet",
          "type": "address"
        },
        {
          "indexed": true,
          "internalType": "address",
          "name": "bobsWallet",
          "type": "address"
        },
        {
          "indexed": true,
          "internalType": "uint256",
          "name": "status",
          "type": "uint256"
        },
        {
          "indexed": false,
          "internalType": "bytes32",
          "name": "contractId",
          "type": "bytes32"
        }
      ],
      "name": "LoanGiven",
      "type": "event"
    },
    {
      "anonymous": false,
      "inputs": [
        {
          "indexed": true,
          "internalType": "address",
          "name": "previousOwner",
          "type": "address"
        },
        {
          "indexed": true,
          "internalType": "address",
          "name": "newOwner",
          "type": "address"
        }
      ],
      "name": "OwnershipTransferred",
      "type": "event"
    },
    {
      "inputs": [
        {
          "internalType": "bytes32",
          "name": "_contractId",
          "type": "bytes32"
        },
        {
          "internalType": "bytes32",
          "name": "_secret1Hash",
          "type": "bytes32"
        },
        {
          "internalType": "uint256",
          "name": "_loanAmount",
          "type": "uint256"
        },
        {
          "internalType": "uint256",
          "name": "_loanInterest",
          "type": "uint256"
        },
        {
          "internalType": "uint256",
          "name": "_reqTill",
          "type": "uint256"
        },
        {
          "internalType": "uint256",
          "name": "_acceptTill",
          "type": "uint256"
        },
        {
          "internalType": "uint256",
          "name": "_lockedTill",
          "type": "uint256"
        },
        {
          "internalType": "uint256",
          "name": "_releaseTill",
          "type": "uint256"
        }
      ],
      "name": "askForLoan",
      "outputs": [],
      "stateMutability": "nonpayable",
      "type": "function"
    },
    {
      "inputs": [
        {
          "internalType": "bytes32",
          "name": "_contractId",
          "type": "bytes32"
        }
      ],
      "name": "getContract1",
      "outputs": [
        {
          "internalType": "bytes32",
          "name": "secret1Hash",
          "type": "bytes32"
        },
        {
          "internalType": "bytes32",
          "name": "secret2Hash",
          "type": "bytes32"
        },
        {
          "internalType": "bytes32",
          "name": "preimage1",
          "type": "bytes32"
        },
        {
          "internalType": "bytes32",
          "name": "preimage2",
          "type": "bytes32"
        },
        {
          "internalType": "address",
          "name": "assetContract",
          "type": "address"
        },
        {
          "internalType": "uint256",
          "name": "tokenId",
          "type": "uint256"
        },
        {
          "internalType": "uint256",
          "name": "loanAmount",
          "type": "uint256"
        },
        {
          "internalType": "uint256",
          "name": "loanInterest",
          "type": "uint256"
        },
        {
          "internalType": "uint256",
          "name": "lenderDeposit",
          "type": "uint256"
        },
        {
          "internalType": "address",
          "name": "bobsWalet",
          "type": "address"
        },
        {
          "internalType": "address",
          "name": "alexWallet",
          "type": "address"
        },
        {
          "internalType": "uint8",
          "name": "status",
          "type": "uint8"
        }
      ],
      "stateMutability": "view",
      "type": "function"
    },
    {
      "inputs": [
        {
          "internalType": "bytes32",
          "name": "_contractId",
          "type": "bytes32"
        }
      ],
      "name": "getContract2",
      "outputs": [
        {
          "internalType": "uint256",
          "name": "reqTill",
          "type": "uint256"
        },
        {
          "internalType": "uint256",
          "name": "acceptTill",
          "type": "uint256"
        },
        {
          "internalType": "uint256",
          "name": "lockedTill",
          "type": "uint256"
        },
        {
          "internalType": "uint256",
          "name": "releaseTill",
          "type": "uint256"
        }
      ],
      "stateMutability": "view",
      "type": "function"
    },
    {
      "inputs": [
        {
          "internalType": "bytes32",
          "name": "_contractId",
          "type": "bytes32"
        },
        {
          "internalType": "bytes32",
          "name": "_secret2Hash",
          "type": "bytes32"
        }
      ],
      "name": "giveLoan",
      "outputs": [],
      "stateMutability": "payable",
      "type": "function"
    },
    {
      "inputs": [],
      "name": "noTakersForLoan",
      "outputs": [],
      "stateMutability": "pure",
      "type": "function"
    },
    {
      "inputs": [],
      "name": "owner",
      "outputs": [
        {
          "internalType": "address",
          "name": "",
          "type": "address"
        }
      ],
      "stateMutability": "view",
      "type": "function"
    },
    {
      "inputs": [],
      "name": "renounceOwnership",
      "outputs": [],
      "stateMutability": "nonpayable",
      "type": "function"
    },
    {
      "inputs": [
        {
          "internalType": "address",
          "name": "newOwner",
          "type": "address"
        }
      ],
      "name": "transferOwnership",
      "outputs": [],
      "stateMutability": "nonpayable",
      "type": "function"
    }
  ],
  "bytecode": "0x608060405234801561001057600080fd5b5061002d61002261003260201b60201c565b61003a60201b60201c565b6100fe565b600033905090565b60008060009054906101000a900473ffffffffffffffffffffffffffffffffffffffff169050816000806101000a81548173ffffffffffffffffffffffffffffffffffffffff021916908373ffffffffffffffffffffffffffffffffffffffff1602179055508173ffffffffffffffffffffffffffffffffffffffff168173ffffffffffffffffffffffffffffffffffffffff167f8be0079c531659141344cd1fd0a4f28419497f9722a3daafe3b4186f6b6457e060405160405180910390a35050565b6115618061010d6000396000f3fe60806040526004361061007b5760003560e01c80639ea37a3d1161004e5780639ea37a3d146101195780639eacf67c14610161578063ad5f28f21461018a578063f2fde38b146101a65761007b565b8063715018a61461008057806374e34b8314610097578063849af09a146100ae5780638da5cb5b146100ee575b600080fd5b34801561008c57600080fd5b506100956101cf565b005b3480156100a357600080fd5b506100ac610257565b005b3480156100ba57600080fd5b506100d560048036038101906100d09190610d5d565b61029a565b6040516100e594939291906111fb565b60405180910390f35b3480156100fa57600080fd5b50610103610304565b6040516101109190610feb565b60405180910390f35b34801561012557600080fd5b50610140600480360381019061013b9190610d5d565b61032d565b6040516101589c9b9a99989796959493929190611021565b60405180910390f35b34801561016d57600080fd5b5061018860048036038101906101839190610dc2565b610484565b005b6101a4600480360381019061019f9190610d86565b610879565b005b3480156101b257600080fd5b506101cd60048036038101906101c89190610d34565b610ac2565b005b6101d7610bba565b73ffffffffffffffffffffffffffffffffffffffff166101f5610304565b73ffffffffffffffffffffffffffffffffffffffff161461024b576040517f08c379a00000000000000000000000000000000000000000000000000000000081526004016102429061119b565b60405180910390fd5b6102556000610bc2565b565b6000610298576040517f08c379a000000000000000000000000000000000000000000000000000000000815260040161028f906111db565b60405180910390fd5b565b600080600080600015156102ad86610c86565b151514156102c85760008060008093509350935093506102fd565b600060016000878152602001908152602001600020905080600b015481600c015482600d015483600e01549450945094509450505b9193509193565b60008060009054906101000a900473ffffffffffffffffffffffffffffffffffffffff16905090565b6000806000806000806000806000806000806000151561034c8e610c86565b1515141561039b576000806000806000806000806000806000808b60001b9b508a60001b9a508960001b99508860001b98509b509b509b509b509b509b509b509b509b509b509b509b50610475565b6000600160008f8152602001908152602001600020905080600001548160010154826002015483600301548460040160009054906101000a900473ffffffffffffffffffffffffffffffffffffffff1685600501548660060154876007015488600801548960090160009054906101000a900473ffffffffffffffffffffffffffffffffffffffff168a600a0160009054906101000a900473ffffffffffffffffffffffffffffffffffffffff168b600a0160149054906101000a900460ff169c509c509c509c509c509c509c509c509c509c509c509c50505b91939597999b5091939597999b565b834281116104c7576040517f08c379a00000000000000000000000000000000000000000000000000000000081526004016104be906110db565b60405180910390fd5b8342811161050a576040517f08c379a0000000000000000000000000000000000000000000000000000000008152600401610501906110db565b60405180910390fd5b8342811161054d576040517f08c379a0000000000000000000000000000000000000000000000000000000008152600401610544906110db565b60405180910390fd5b83428111610590576040517f08c379a0000000000000000000000000000000000000000000000000000000008152600401610587906110db565b60405180910390fd5b60008a116105d3576040517f08c379a00000000000000000000000000000000000000000000000000000000081526004016105ca906110fb565b60405180910390fd5b6105dc8c610c86565b1561061c576040517f08c379a00000000000000000000000000000000000000000000000000000000081526004016106139061115b565b60405180910390fd5b6040518061020001604052808c81526020016000801b81526020016000801b81526020016000801b8152602001600073ffffffffffffffffffffffffffffffffffffffff168152602001600081526020018b81526020018a81526020018b8152602001600073ffffffffffffffffffffffffffffffffffffffff1681526020016106a4610bba565b73ffffffffffffffffffffffffffffffffffffffff168152602001600060ff16815260200189815260200188815260200187815260200186815250600160008e81526020019081526020016000206000820151816000015560208201518160010155604082015181600201556060820151816003015560808201518160040160006101000a81548173ffffffffffffffffffffffffffffffffffffffff021916908373ffffffffffffffffffffffffffffffffffffffff16021790555060a0820151816005015560c0820151816006015560e0820151816007015561010082015181600801556101208201518160090160006101000a81548173ffffffffffffffffffffffffffffffffffffffff021916908373ffffffffffffffffffffffffffffffffffffffff16021790555061014082015181600a0160006101000a81548173ffffffffffffffffffffffffffffffffffffffff021916908373ffffffffffffffffffffffffffffffffffffffff16021790555061016082015181600a0160146101000a81548160ff021916908360ff16021790555061018082015181600b01556101a082015181600c01556101c082015181600d01556101e082015181600e0155905050505050505050505050505050565b8161088381610c86565b6108c2576040517f08c379a00000000000000000000000000000000000000000000000000000000081526004016108b99061113b565b60405180910390fd5b6000600160008581526020019081526020016000209050600060ff1681600a0160149054906101000a900460ff1660ff1614610933576040517f08c379a000000000000000000000000000000000000000000000000000000000815260040161092a906111bb565b60405180910390fd5b806008015481600601546109479190611251565b341015610989576040517f08c379a00000000000000000000000000000000000000000000000000000000081526004016109809061117b565b60405180910390fd5b82816001018190555061099a610bba565b8160090160006101000a81548173ffffffffffffffffffffffffffffffffffffffff021916908373ffffffffffffffffffffffffffffffffffffffff160217905550600181600a0160146101000a81548160ff021916908360ff16021790555080600a0160149054906101000a900460ff1660ff168160090160009054906101000a900473ffffffffffffffffffffffffffffffffffffffff1673ffffffffffffffffffffffffffffffffffffffff1682600a0160009054906101000a900473ffffffffffffffffffffffffffffffffffffffff1673ffffffffffffffffffffffffffffffffffffffff167fe480dd6a21fc5c0bbacd9806b58b794052d1ee5d1a2f214822bbb4077dca192a87604051610ab49190611006565b60405180910390a450505050565b610aca610bba565b73ffffffffffffffffffffffffffffffffffffffff16610ae8610304565b73ffffffffffffffffffffffffffffffffffffffff1614610b3e576040517f08c379a0000000000000000000000000000000000000000000000000000000008152600401610b359061119b565b60405180910390fd5b600073ffffffffffffffffffffffffffffffffffffffff168173ffffffffffffffffffffffffffffffffffffffff161415610bae576040517f08c379a0000000000000000000000000000000000000000000000000000000008152600401610ba59061111b565b60405180910390fd5b610bb781610bc2565b50565b600033905090565b60008060009054906101000a900473ffffffffffffffffffffffffffffffffffffffff169050816000806101000a81548173ffffffffffffffffffffffffffffffffffffffff021916908373ffffffffffffffffffffffffffffffffffffffff1602179055508173ffffffffffffffffffffffffffffffffffffffff168173ffffffffffffffffffffffffffffffffffffffff167f8be0079c531659141344cd1fd0a4f28419497f9722a3daafe3b4186f6b6457e060405160405180910390a35050565b60008073ffffffffffffffffffffffffffffffffffffffff1660016000848152602001908152602001600020600a0160009054906101000a900473ffffffffffffffffffffffffffffffffffffffff1673ffffffffffffffffffffffffffffffffffffffff1614159050919050565b600081359050610d04816114e6565b92915050565b600081359050610d19816114fd565b92915050565b600081359050610d2e81611514565b92915050565b600060208284031215610d4657600080fd5b6000610d5484828501610cf5565b91505092915050565b600060208284031215610d6f57600080fd5b6000610d7d84828501610d0a565b91505092915050565b60008060408385031215610d9957600080fd5b6000610da785828601610d0a565b9250506020610db885828601610d0a565b9150509250929050565b600080600080600080600080610100898b031215610ddf57600080fd5b6000610ded8b828c01610d0a565b9850506020610dfe8b828c01610d0a565b9750506040610e0f8b828c01610d1f565b9650506060610e208b828c01610d1f565b9550506080610e318b828c01610d1f565b94505060a0610e428b828c01610d1f565b93505060c0610e538b828c01610d1f565b92505060e0610e648b828c01610d1f565b9150509295985092959890939650565b610e7d816112a7565b82525050565b610e8c816112b9565b82525050565b6000610e9f602383611240565b9150610eaa82611329565b604082019050919050565b6000610ec2601283611240565b9150610ecd82611378565b602082019050919050565b6000610ee5602683611240565b9150610ef0826113a1565b604082019050919050565b6000610f08601983611240565b9150610f13826113f0565b602082019050919050565b6000610f2b601783611240565b9150610f3682611419565b602082019050919050565b6000610f4e601683611240565b9150610f5982611442565b602082019050919050565b6000610f71602083611240565b9150610f7c8261146b565b602082019050919050565b6000610f94601583611240565b9150610f9f82611494565b602082019050919050565b6000610fb7601583611240565b9150610fc2826114bd565b602082019050919050565b610fd6816112e3565b82525050565b610fe5816112ed565b82525050565b60006020820190506110006000830184610e74565b92915050565b600060208201905061101b6000830184610e83565b92915050565b600061018082019050611037600083018f610e83565b611044602083018e610e83565b611051604083018d610e83565b61105e606083018c610e83565b61106b608083018b610e74565b61107860a083018a610fcd565b61108560c0830189610fcd565b61109260e0830188610fcd565b6110a0610100830187610fcd565b6110ae610120830186610e74565b6110bc610140830185610e74565b6110ca610160830184610fdc565b9d9c50505050505050505050505050565b600060208201905081810360008301526110f481610e92565b9050919050565b6000602082019050818103600083015261111481610eb5565b9050919050565b6000602082019050818103600083015261113481610ed8565b9050919050565b6000602082019050818103600083015261115481610efb565b9050919050565b6000602082019050818103600083015261117481610f1e565b9050919050565b6000602082019050818103600083015261119481610f41565b9050919050565b600060208201905081810360008301526111b481610f64565b9050919050565b600060208201905081810360008301526111d481610f87565b9050919050565b600060208201905081810360008301526111f481610faa565b9050919050565b60006080820190506112106000830187610fcd565b61121d6020830186610fcd565b61122a6040830185610fcd565b6112376060830184610fcd565b95945050505050565b600082825260208201905092915050565b600061125c826112e3565b9150611267836112e3565b9250827fffffffffffffffffffffffffffffffffffffffffffffffffffffffffffffffff0382111561129c5761129b6112fa565b5b828201905092915050565b60006112b2826112c3565b9050919050565b6000819050919050565b600073ffffffffffffffffffffffffffffffffffffffff82169050919050565b6000819050919050565b600060ff82169050919050565b7f4e487b7100000000000000000000000000000000000000000000000000000000600052601160045260246000fd5b7f74696d656c6f636b2074696d65206d75737420626520696e207468652066757460008201527f7572650000000000000000000000000000000000000000000000000000000000602082015250565b7f616d6f756e74206d757374206265203e20300000000000000000000000000000600082015250565b7f4f776e61626c653a206e6577206f776e657220697320746865207a65726f206160008201527f6464726573730000000000000000000000000000000000000000000000000000602082015250565b7f636f6e7472616374496420646f6573206e6f7420657869737400000000000000600082015250565b7f436f6e747261637420616c726561647920657869737473000000000000000000600082015250565b7f6e6f742074686520636f727265637420616d6f756e7400000000000000000000600082015250565b7f4f776e61626c653a2063616c6c6572206973206e6f7420746865206f776e6572600082015250565b7f6d7573742062652073746174655f637265617465640000000000000000000000600082015250565b7f746f646f3a206e6f7420696d706c656d656e7465640000000000000000000000600082015250565b6114ef816112a7565b81146114fa57600080fd5b50565b611506816112b9565b811461151157600080fd5b50565b61151d816112e3565b811461152857600080fd5b5056fea26469706673582212204883b7de2e9bdf3b202a32ab41094482aeb3f9dea7b5b9901d09732843423f8f64736f6c63430008040033",
  "linkReferences": {},
  "deployedLinkReferences": {}
}