{
  "_format": "hh-sol-artifact-1",
  "contractName": "CashSide",
  "sourceName": "contracts/cashSide.sol",
  "abi": [
    {
      "anonymous": false,
      "inputs": [
        {
          "indexed": true,
          "internalType": "address",
          "name": "alexWallet",
          "type": "address"
        },
        {
          "indexed": true,
          "internalType": "address",
          "name": "bobsWallet",
          "type": "address"
        },
        {
          "indexed": true,
          "internalType": "uint256",
          "name": "status",
          "type": "uint256"
        },
        {
          "indexed": false,
          "internalType": "bytes32",
          "name": "contractId",
          "type": "bytes32"
        }
      ],
      "name": "LoanGiven",
      "type": "event"
    },
    {
      "anonymous": false,
      "inputs": [
        {
          "indexed": true,
          "internalType": "address",
          "name": "previousOwner",
          "type": "address"
        },
        {
          "indexed": true,
          "internalType": "address",
          "name": "newOwner",
          "type": "address"
        }
      ],
      "name": "OwnershipTransferred",
      "type": "event"
    },
    {
      "inputs": [
        {
          "internalType": "bytes32",
          "name": "_contractId",
          "type": "bytes32"
        },
        {
          "internalType": "bytes32",
          "name": "_secret1Hash",
          "type": "bytes32"
        },
        {
          "internalType": "uint256",
          "name": "_loanAmount",
          "type": "uint256"
        },
        {
          "internalType": "uint256",
          "name": "_loanInterest",
          "type": "uint256"
        },
        {
          "internalType": "uint256",
          "name": "_reqTill",
          "type": "uint256"
        },
        {
          "internalType": "uint256",
          "name": "_acceptTill",
          "type": "uint256"
        },
        {
          "internalType": "uint256",
          "name": "_lockedTill",
          "type": "uint256"
        },
        {
          "internalType": "uint256",
          "name": "_releaseTill",
          "type": "uint256"
        }
      ],
      "name": "askForLoan",
      "outputs": [],
      "stateMutability": "nonpayable",
      "type": "function"
    },
    {
      "inputs": [
        {
          "internalType": "address",
          "name": "_alexWallet",
          "type": "address"
        },
        {
          "internalType": "address",
          "name": "_asset",
          "type": "address"
        },
        {
          "internalType": "uint256",
          "name": "_tokenId",
          "type": "uint256"
        }
      ],
      "name": "computeContractId",
      "outputs": [
        {
          "internalType": "bytes32",
          "name": "",
          "type": "bytes32"
        }
      ],
      "stateMutability": "pure",
      "type": "function"
    },
    {
      "inputs": [
        {
          "internalType": "bytes32",
          "name": "_contractId",
          "type": "bytes32"
        }
      ],
      "name": "getContract1",
      "outputs": [
        {
          "internalType": "bytes32",
          "name": "secret1Hash",
          "type": "bytes32"
        },
        {
          "internalType": "bytes32",
          "name": "secret2Hash",
          "type": "bytes32"
        },
        {
          "internalType": "bytes32",
          "name": "preimage1",
          "type": "bytes32"
        },
        {
          "internalType": "bytes32",
          "name": "preimage2",
          "type": "bytes32"
        },
        {
          "internalType": "address",
          "name": "assetContract",
          "type": "address"
        },
        {
          "internalType": "uint256",
          "name": "tokenId",
          "type": "uint256"
        },
        {
          "internalType": "uint256",
          "name": "loanAmount",
          "type": "uint256"
        },
        {
          "internalType": "uint256",
          "name": "loanInterest",
          "type": "uint256"
        },
        {
          "internalType": "uint256",
          "name": "lenderDeposit",
          "type": "uint256"
        },
        {
          "internalType": "address",
          "name": "bobsWalet",
          "type": "address"
        },
        {
          "internalType": "address",
          "name": "alexWallet",
          "type": "address"
        },
        {
          "internalType": "uint8",
          "name": "status",
          "type": "uint8"
        }
      ],
      "stateMutability": "view",
      "type": "function"
    },
    {
      "inputs": [
        {
          "internalType": "bytes32",
          "name": "_contractId",
          "type": "bytes32"
        }
      ],
      "name": "getContract2",
      "outputs": [
        {
          "internalType": "uint256",
          "name": "reqTill",
          "type": "uint256"
        },
        {
          "internalType": "uint256",
          "name": "acceptTill",
          "type": "uint256"
        },
        {
          "internalType": "uint256",
          "name": "lockedTill",
          "type": "uint256"
        },
        {
          "internalType": "uint256",
          "name": "releaseTill",
          "type": "uint256"
        }
      ],
      "stateMutability": "view",
      "type": "function"
    },
    {
      "inputs": [
        {
          "internalType": "bytes32",
          "name": "_contractId",
          "type": "bytes32"
        },
        {
          "internalType": "bytes32",
          "name": "_secret2Hash",
          "type": "bytes32"
        }
      ],
      "name": "giveLoan",
      "outputs": [],
      "stateMutability": "payable",
      "type": "function"
    },
    {
      "inputs": [],
      "name": "noTakersForLoan",
      "outputs": [],
      "stateMutability": "pure",
      "type": "function"
    },
    {
      "inputs": [],
      "name": "owner",
      "outputs": [
        {
          "internalType": "address",
          "name": "",
          "type": "address"
        }
      ],
      "stateMutability": "view",
      "type": "function"
    },
    {
      "inputs": [],
      "name": "renounceOwnership",
      "outputs": [],
      "stateMutability": "nonpayable",
      "type": "function"
    },
    {
      "inputs": [
        {
          "internalType": "address",
          "name": "newOwner",
          "type": "address"
        }
      ],
      "name": "transferOwnership",
      "outputs": [],
      "stateMutability": "nonpayable",
      "type": "function"
    }
  ],
  "bytecode": "0x608060405234801561001057600080fd5b5061002d61002261003260201b60201c565b61003a60201b60201c565b6100fe565b600033905090565b60008060009054906101000a900473ffffffffffffffffffffffffffffffffffffffff169050816000806101000a81548173ffffffffffffffffffffffffffffffffffffffff021916908373ffffffffffffffffffffffffffffffffffffffff1602179055508173ffffffffffffffffffffffffffffffffffffffff168173ffffffffffffffffffffffffffffffffffffffff167f8be0079c531659141344cd1fd0a4f28419497f9722a3daafe3b4186f6b6457e060405160405180910390a35050565b6116ea8061010d6000396000f3fe6080604052600436106100865760003560e01c80639ea37a3d116100595780639ea37a3d146101245780639eacf67c1461016c578063ad5f28f214610195578063f2fde38b146101b1578063fa868db1146101da57610086565b8063715018a61461008b57806374e34b83146100a2578063849af09a146100b95780638da5cb5b146100f9575b600080fd5b34801561009757600080fd5b506100a0610217565b005b3480156100ae57600080fd5b506100b761029f565b005b3480156100c557600080fd5b506100e060048036038101906100db9190610e40565b6102e2565b6040516100f09493929190611349565b60405180910390f35b34801561010557600080fd5b5061010e61034c565b60405161011b9190611139565b60405180910390f35b34801561013057600080fd5b5061014b60048036038101906101469190610e40565b610375565b6040516101639c9b9a9998979695949392919061116f565b60405180910390f35b34801561017857600080fd5b50610193600480360381019061018e9190610ea5565b6104cc565b005b6101af60048036038101906101aa9190610e69565b6108c1565b005b3480156101bd57600080fd5b506101d860048036038101906101d39190610dc8565b610b0a565b005b3480156101e657600080fd5b5061020160048036038101906101fc9190610df1565b610c02565b60405161020e9190611154565b60405180910390f35b61021f610c18565b73ffffffffffffffffffffffffffffffffffffffff1661023d61034c565b73ffffffffffffffffffffffffffffffffffffffff1614610293576040517f08c379a000000000000000000000000000000000000000000000000000000000815260040161028a906112e9565b60405180910390fd5b61029d6000610c20565b565b60006102e0576040517f08c379a00000000000000000000000000000000000000000000000000000000081526004016102d790611329565b60405180910390fd5b565b600080600080600015156102f586610ce4565b15151415610310576000806000809350935093509350610345565b600060016000878152602001908152602001600020905080600b015481600c015482600d015483600e01549450945094509450505b9193509193565b60008060009054906101000a900473ffffffffffffffffffffffffffffffffffffffff16905090565b600080600080600080600080600080600080600015156103948e610ce4565b151514156103e3576000806000806000806000806000806000808b60001b9b508a60001b9a508960001b99508860001b98509b509b509b509b509b509b509b509b509b509b509b509b506104bd565b6000600160008f8152602001908152602001600020905080600001548160010154826002015483600301548460040160009054906101000a900473ffffffffffffffffffffffffffffffffffffffff1685600501548660060154876007015488600801548960090160009054906101000a900473ffffffffffffffffffffffffffffffffffffffff168a600a0160009054906101000a900473ffffffffffffffffffffffffffffffffffffffff168b600a0160149054906101000a900460ff169c509c509c509c509c509c509c509c509c509c509c509c50505b91939597999b5091939597999b565b8342811161050f576040517f08c379a000000000000000000000000000000000000000000000000000000000815260040161050690611229565b60405180910390fd5b83428111610552576040517f08c379a000000000000000000000000000000000000000000000000000000000815260040161054990611229565b60405180910390fd5b83428111610595576040517f08c379a000000000000000000000000000000000000000000000000000000000815260040161058c90611229565b60405180910390fd5b834281116105d8576040517f08c379a00000000000000000000000000000000000000000000000000000000081526004016105cf90611229565b60405180910390fd5b60008a1161061b576040517f08c379a000000000000000000000000000000000000000000000000000000000815260040161061290611249565b60405180910390fd5b6106248c610ce4565b15610664576040517f08c379a000000000000000000000000000000000000000000000000000000000815260040161065b906112a9565b60405180910390fd5b6040518061020001604052808c81526020016000801b81526020016000801b81526020016000801b8152602001600073ffffffffffffffffffffffffffffffffffffffff168152602001600081526020018b81526020018a81526020018b8152602001600073ffffffffffffffffffffffffffffffffffffffff1681526020016106ec610c18565b73ffffffffffffffffffffffffffffffffffffffff168152602001600060ff16815260200189815260200188815260200187815260200186815250600160008e81526020019081526020016000206000820151816000015560208201518160010155604082015181600201556060820151816003015560808201518160040160006101000a81548173ffffffffffffffffffffffffffffffffffffffff021916908373ffffffffffffffffffffffffffffffffffffffff16021790555060a0820151816005015560c0820151816006015560e0820151816007015561010082015181600801556101208201518160090160006101000a81548173ffffffffffffffffffffffffffffffffffffffff021916908373ffffffffffffffffffffffffffffffffffffffff16021790555061014082015181600a0160006101000a81548173ffffffffffffffffffffffffffffffffffffffff021916908373ffffffffffffffffffffffffffffffffffffffff16021790555061016082015181600a0160146101000a81548160ff021916908360ff16021790555061018082015181600b01556101a082015181600c01556101c082015181600d01556101e082015181600e0155905050505050505050505050505050565b816108cb81610ce4565b61090a576040517f08c379a000000000000000000000000000000000000000000000000000000000815260040161090190611289565b60405180910390fd5b6000600160008581526020019081526020016000209050600060ff1681600a0160149054906101000a900460ff1660ff161461097b576040517f08c379a000000000000000000000000000000000000000000000000000000000815260040161097290611309565b60405180910390fd5b8060080154816006015461098f919061139f565b3410156109d1576040517f08c379a00000000000000000000000000000000000000000000000000000000081526004016109c8906112c9565b60405180910390fd5b8281600101819055506109e2610c18565b8160090160006101000a81548173ffffffffffffffffffffffffffffffffffffffff021916908373ffffffffffffffffffffffffffffffffffffffff160217905550600181600a0160146101000a81548160ff021916908360ff16021790555080600a0160149054906101000a900460ff1660ff168160090160009054906101000a900473ffffffffffffffffffffffffffffffffffffffff1673ffffffffffffffffffffffffffffffffffffffff1682600a0160009054906101000a900473ffffffffffffffffffffffffffffffffffffffff1673ffffffffffffffffffffffffffffffffffffffff167fe480dd6a21fc5c0bbacd9806b58b794052d1ee5d1a2f214822bbb4077dca192a87604051610afc9190611154565b60405180910390a450505050565b610b12610c18565b73ffffffffffffffffffffffffffffffffffffffff16610b3061034c565b73ffffffffffffffffffffffffffffffffffffffff1614610b86576040517f08c379a0000000000000000000000000000000000000000000000000000000008152600401610b7d906112e9565b60405180910390fd5b600073ffffffffffffffffffffffffffffffffffffffff168173ffffffffffffffffffffffffffffffffffffffff161415610bf6576040517f08c379a0000000000000000000000000000000000000000000000000000000008152600401610bed90611269565b60405180910390fd5b610bff81610c20565b50565b6000610c0f848484610d53565b90509392505050565b600033905090565b60008060009054906101000a900473ffffffffffffffffffffffffffffffffffffffff169050816000806101000a81548173ffffffffffffffffffffffffffffffffffffffff021916908373ffffffffffffffffffffffffffffffffffffffff1602179055508173ffffffffffffffffffffffffffffffffffffffff168173ffffffffffffffffffffffffffffffffffffffff167f8be0079c531659141344cd1fd0a4f28419497f9722a3daafe3b4186f6b6457e060405160405180910390a35050565b60008073ffffffffffffffffffffffffffffffffffffffff1660016000848152602001908152602001600020600a0160009054906101000a900473ffffffffffffffffffffffffffffffffffffffff1673ffffffffffffffffffffffffffffffffffffffff1614159050919050565b6000838383604051602001610d6a939291906110fc565b6040516020818303038152906040528051906020012090509392505050565b600081359050610d988161166f565b92915050565b600081359050610dad81611686565b92915050565b600081359050610dc28161169d565b92915050565b600060208284031215610dda57600080fd5b6000610de884828501610d89565b91505092915050565b600080600060608486031215610e0657600080fd5b6000610e1486828701610d89565b9350506020610e2586828701610d89565b9250506040610e3686828701610db3565b9150509250925092565b600060208284031215610e5257600080fd5b6000610e6084828501610d9e565b91505092915050565b60008060408385031215610e7c57600080fd5b6000610e8a85828601610d9e565b9250506020610e9b85828601610d9e565b9150509250929050565b600080600080600080600080610100898b031215610ec257600080fd5b6000610ed08b828c01610d9e565b9850506020610ee18b828c01610d9e565b9750506040610ef28b828c01610db3565b9650506060610f038b828c01610db3565b9550506080610f148b828c01610db3565b94505060a0610f258b828c01610db3565b93505060c0610f368b828c01610db3565b92505060e0610f478b828c01610db3565b9150509295985092959890939650565b610f60816113f5565b82525050565b610f77610f72826113f5565b611448565b82525050565b610f8681611407565b82525050565b6000610f9960238361138e565b9150610fa4826114b2565b604082019050919050565b6000610fbc60128361138e565b9150610fc782611501565b602082019050919050565b6000610fdf60268361138e565b9150610fea8261152a565b604082019050919050565b600061100260198361138e565b915061100d82611579565b602082019050919050565b600061102560178361138e565b9150611030826115a2565b602082019050919050565b600061104860168361138e565b9150611053826115cb565b602082019050919050565b600061106b60208361138e565b9150611076826115f4565b602082019050919050565b600061108e60158361138e565b91506110998261161d565b602082019050919050565b60006110b160158361138e565b91506110bc82611646565b602082019050919050565b6110d081611431565b82525050565b6110e76110e282611431565b61146c565b82525050565b6110f68161143b565b82525050565b60006111088286610f66565b6014820191506111188285610f66565b60148201915061112882846110d6565b602082019150819050949350505050565b600060208201905061114e6000830184610f57565b92915050565b60006020820190506111696000830184610f7d565b92915050565b600061018082019050611185600083018f610f7d565b611192602083018e610f7d565b61119f604083018d610f7d565b6111ac606083018c610f7d565b6111b9608083018b610f57565b6111c660a083018a6110c7565b6111d360c08301896110c7565b6111e060e08301886110c7565b6111ee6101008301876110c7565b6111fc610120830186610f57565b61120a610140830185610f57565b6112186101608301846110ed565b9d9c50505050505050505050505050565b6000602082019050818103600083015261124281610f8c565b9050919050565b6000602082019050818103600083015261126281610faf565b9050919050565b6000602082019050818103600083015261128281610fd2565b9050919050565b600060208201905081810360008301526112a281610ff5565b9050919050565b600060208201905081810360008301526112c281611018565b9050919050565b600060208201905081810360008301526112e28161103b565b9050919050565b600060208201905081810360008301526113028161105e565b9050919050565b6000602082019050818103600083015261132281611081565b9050919050565b60006020820190508181036000830152611342816110a4565b9050919050565b600060808201905061135e60008301876110c7565b61136b60208301866110c7565b61137860408301856110c7565b61138560608301846110c7565b95945050505050565b600082825260208201905092915050565b60006113aa82611431565b91506113b583611431565b9250827fffffffffffffffffffffffffffffffffffffffffffffffffffffffffffffffff038211156113ea576113e9611476565b5b828201905092915050565b600061140082611411565b9050919050565b6000819050919050565b600073ffffffffffffffffffffffffffffffffffffffff82169050919050565b6000819050919050565b600060ff82169050919050565b60006114538261145a565b9050919050565b6000611465826114a5565b9050919050565b6000819050919050565b7f4e487b7100000000000000000000000000000000000000000000000000000000600052601160045260246000fd5b60008160601b9050919050565b7f74696d656c6f636b2074696d65206d75737420626520696e207468652066757460008201527f7572650000000000000000000000000000000000000000000000000000000000602082015250565b7f616d6f756e74206d757374206265203e20300000000000000000000000000000600082015250565b7f4f776e61626c653a206e6577206f776e657220697320746865207a65726f206160008201527f6464726573730000000000000000000000000000000000000000000000000000602082015250565b7f636f6e7472616374496420646f6573206e6f7420657869737400000000000000600082015250565b7f436f6e747261637420616c726561647920657869737473000000000000000000600082015250565b7f6e6f742074686520636f727265637420616d6f756e7400000000000000000000600082015250565b7f4f776e61626c653a2063616c6c6572206973206e6f7420746865206f776e6572600082015250565b7f6d7573742062652073746174655f637265617465640000000000000000000000600082015250565b7f746f646f3a206e6f7420696d706c656d656e7465640000000000000000000000600082015250565b611678816113f5565b811461168357600080fd5b50565b61168f81611407565b811461169a57600080fd5b50565b6116a681611431565b81146116b157600080fd5b5056fea264697066735822122061621f3ce2866b6e48ca964d2bcb9ac020c46b491702d665d780ec4450fc966d64736f6c63430008040033",
  "linkReferences": {},
  "deployedLinkReferences": {}
}